:10000000001000203D2B00006F2B0000712B000022
:100010006D2B00006D2B00006D2B00006D2B000080
:100020006D2B00006D2B00006D2B0000732B00006A
:100030006D2B00006D2B0000752B0000772B00004E
:10004000792B000009020000B52100007F2B000081
:10005000812B0000832B000011020000872B000081
:10006000892B00008B2B00008D2B000079020000F3
:10007000912B0000932B0000952B0000972B000084
:10008000992B0000000000000000000000000000AC
:100090000000000000000000000000000000000060
:1000A0000000000000000000000000000000000050
:1000B0000000000000000000000000000000000040
:1000C0000000000000000000000000000000000030
:1000D0000000000000000000000000000000000020
:1000E0000000000000000000000000000000000010
:1000F0000000000000000000000000000000000000
:1001000010B5064C2378002B07D1054B002B02D0ED
:10011000044800E000BF0123237010BDB0000020A0
:10012000000000003045000008B5084B002B03D04C
:100130000748084900E000BF07480368002B03D0C8
:10014000064B002B00D0984708BDC04600000000B9
:1001500030450000B4000020B00000200000000086
:10016000164B002B00D1144B9D46402292029A1A46
:10017000924600218B460F461348144A121A03F088
:1001800028FB0F4B002B00D098470E4B002B00D0C4
:1001900098470020002104000D000D48002802D0DF
:1001A0000C4800E000BF03F0E5FA2000290000F051
:1001B0007FF903F0C9FAC0460000080000100020D3
:1001C0000000000000000000B0000020240A002011
:1001D0000000000000000000094A93691362DA057C
:1001E00005D5084A1178312901D8013111709A05D5
:1001F00005D5044B1A78002A01D0013A1A707047CD
:10020000FC6000400000002008B5FFF7E5FF08BDD6
:1002100008B5FFF7E1FF08BDF0B587B0124A6B469D
:1002200023CA23C323CA23C3104D1148012100F060
:100230005DFC6C46022001260027E0746946281CFC
:1002400026700296277401F05FF8391C321C281CB6
:1002500001F046F8074B802212011A606B6A0221F6
:100260000B436B6207B0F0BD6040000000600840C7
:100270000006060000E100E0F8B52E4B02222E4FEA
:100280001A623868282102F0EDFD00294ED12B4B6F
:1002900001225A609A68D103FCD5284B5D6A284B2D
:1002A0001868DE680002000E03F0D0F9360D041C59
:1002B000701B03F0CBF9234902F0E0FD011C201C68
:1002C00003F02EF8204902F0FFFE03F09FF91F4BC8
:1002D0001F4C18601F4B1E78002E0FD00523734350
:1002E000B500193305216353494202F065FD6519D4
:1002F000873068800025142E05D013E01923238051
:100300004B2363800EE06619311D301C042203F07C
:1003100057FA33880435053B3380502DF3D10D4A0D
:10032000132313700B490B7801330B703B680133B7
:100330003B60F8BD00600840D00000200020004075
:10034000B081E00FD7A3C8C000002041D400002036
:10035000BC090020CC000020F0B587B0284D192141
:1003600069227D23281C01F03DFC69222D23281CD5
:10037000192101F073FC234B19221A60224B6922C8
:100380001A600024214B1B789C4216DA204BA500F2
:10039000ED1802216A5E1B4F1B4E00216B5E00921E
:1003A00039683268164801F0ABFC0022AB5E0134BC
:1003B0003B6002216B5E3360E4E7164C02A8221C0E
:1003C0000521322303F00EFA221C04A80521002384
:1003D00003F008FA00247323009304A90194022275
:1003E0001923074801F095FE28230093019402A9E0
:1003F00002221923024801F08CFE07B0F0BDC0466E
:10040000D80000200400002008000020CC000020BC
:10041000BC0900209040000070B50F4C0F4D2068C3
:100420000A212E7802F0C8FC864205DA002002F08C
:1004300053FC012002F050FC20680A2102F0BCFCB1
:100440002B78013B984205DA002002F02DFC0120B8
:1004500002F02AFC70BDC046D4000020000000203D
:1004600008B501F01BFF01F0DBFE032001F0C8FE20
:1004700000280AD0042001F0C3FE002805D10B4B50
:100480001A78312A11D801320EE0042001F0B8FEAA
:1004900000280AD0032001F0B3FE002805D1034B49
:1004A0001A78002A01D0013A1A7008BD0000002015
:1004B000F0B5A1B0002614AD7748012100F016FB7D
:1004C0000EAC1F230922311C281CE37026706670B5
:1004D000A6702671667103F07CF9301C00F0D8F923
:1004E000311CE0706D4800F0AFF9211C20716C48A0
:1004F00000F021F908202871291C6948AE7000F02D
:1005000037F96848012100F0F1FA02200127021CA6
:100510000821012300F0C8FC02200821321C3B1CEA
:10052000009700F07DFC0220021C09213B1C00F01A
:10053000BBFC0921321C3B1C0097022000F070FC20
:10054000594BC021B94002225A501A6040225A50D9
:100550001A6002F08DFB01F0E7FEB04200D0FEE72A
:1005600001F0F4F8002800D0FEE7504801F0B0F99F
:10057000061E00D0FEE7FFF74FFE4D4B221C18333E
:1005800083CB83C283CB83C2201C02F017F9494876
:100590008221321C02F0BCF9FFF762FFFFF73CFF3B
:1005A000424C201C01F0CBF94349201C01F0F2FD24
:1005B00001235B4208AA089382210AAB3D4802F05E
:1005C00079F93E4E0A213768381C02F04BFC081CB2
:1005D00003F0B6F80A210590381C02F0EDFB0599EE
:1005E000374B00911B78FA21071C8900089801936A
:1005F00002F0E2FB3B1C3021324A0290281C03F03F
:10060000F1F8281C03F020F9052300930023021CB5
:100610000193291C201C01F07CFD30686427FA211D
:100620007843890002F0C8FB0E230C930A230A9337
:100630000D97322800DD3220381A0B900AA9201CB1
:1006400001F083FC201C0C216922082301F044FAEC
:100650006922201C0C21052301F044FA1023AB6011
:1006600008232B606323EB60291C3023201C6B6064
:1006700001F02DFC144C06A8221C0521322303F0A6
:10068000B1F80521221C002308A803F0ABF8FFF7FE
:1006900063FE01F097F87FE700A20200801A0600CF
:1006A000002000400072020000E100E0D8000020BD
:1006B0006040000000A00040C8400000D4000020BE
:1006C00000000020934000009040000010B50A7A1E
:1006D0004B7A4C6812021B011343220613434C78D9
:1006E0000A78A407D20722431343CA68036013029F
:1006F000074A13438A7A12071343CA7A1204134330
:1007000043600368012293430A7C1343036010BDD6
:10071000B00000014268072319409A431143416029
:100720007047036801229343036070470368012206
:1007300013430360704710B50A2343600A784B786F
:1007400012061B0113438A78CC781343FE2224043B
:10075000D20322400C791343FE222402D20122400C
:1007600013434A79002A01D008221343036010BDC5
:1007700070B58C780222031C4260062C3BD8201CEA
:1007800002F0C2FA040F162439393100586B2C4A92
:10079000FE2510402B4AED01566835400543506850
:1007A00010E05D6B264A1540264A5068526813E0F7
:1007B000586B234AFE251040224AED0196683540C9
:1007C000054390687F2210402A1C12E05D6B1C4A92
:1007D00015401C4A9068926852024000520E400E2A
:1007E0002A43000205E0174D586BED687F229043C5
:1007F0002A4002435A6348780A78000512070243E8
:1008000008792404000222430243C878000102430D
:100810008879002802D0802040040243C87900284B
:1008200001D0042002434879002801D0022002436D
:10083000097A002901D001210A43DA6070BDC0465F
:100840008080FFFFB081E00F10B50E4B041E9C426C
:1008500005D80D4B984203D8FA24E40100E01C1C93
:10086000002903D1094800F0C9F9011C601E401895
:10087000211C02F053FA031C5A1E9341C01AC0B245
:1008800010BDC046405DC600FF7C00001081020024
:1008900008B5002805D1074800F0B0F9002800D1BC
:1008A0000120054B0549C01802F038FA0138C0B2E2
:1008B00008BDC046108102003F420F0040420F00B9
:1008C00070B50B4B0B4AD96BDA635A680A4A0B4C6A
:1008D000801800225D68161C84425641072085431B
:1008E000281C30435860914200D0DA6370BDC04686
:1008F00000000C40711B0000FFDB0BFFFF23F40026
:10090000104BE0225B69D2008021134089008B42AA
:1009100016D007D8002B0FD08022520093420DD161
:1009200009480EE0C02189008B4203D0934205D1D3
:10093000064806E0064804E0064802E0002000E021
:100940000548704700800C40C0D8A700406F4001A8
:1009500040420F00809FD500C0CF6A00034B5A6D04
:10096000D10702D41A6D0242FCD1704700800C40BE
:1009700008B5104A4300916AD9400B1C03210B4073
:10098000022B06D08B4207D0012B09D102F063F96C
:100990000FE002F067F90CE002F04CF9400808E0C3
:1009A000936A04308000C3400020834201D002F0EB
:1009B00055F908BD00800C4000B5021C0006000F70
:1009C0000138012303281CD802F09EF90205090F03
:1009D0000D4B9A6801E00C4B5A680F230BE00B4B50
:1009E0009A420DD1084B9A6EF7E7094B9A4207D10C
:1009F000054B1A6F0323134001229A40131C00E099
:100A00000123181C00BDC04600800C4030040800C3
:100A10004005140010B5031C0006000F01380C1C23
:100A2000032859D802F070F902132B4280221206D3
:100A30000023144202D101335208FAE7274A1F204B
:100A40009168C31A0F2081430B43936044E024480C
:100A5000FFF736FF802212060023144202D1013331
:100A60005208FAE71D4A1F205168C31A0F2081431C
:100A70000B43536002F0DEF8FFF722FF2CE0194A27
:100A8000934229D10420FFF769FF80221206002338
:100A9000144202D101335208FAE7104A1F20916E26
:100AA000C31A0F2081430B43936615E00E4A93420D
:100AB00012D14020FFF752FF802212060023144279
:100AC00002D101335208FAE7044A1F20116FC31AFA
:100AD000032081430B43136710BDC04600800C40C8
:100AE00000366E01300408004005140070B5051C86
:100AF0000005000F01380E1C052823D802F004F968
:100B0000031206090C0F00200F4C0DE000200F4CC3
:100B10000AE001200E4C07E010200E4C04E00020FB
:100B20000D4C01E00D4C0020ED03ED0E002801D02E
:100B3000FFF714FF23680122AA409343AE401D1C17
:100B40003543256070BDC04608800C4040800C4095
:100B500058800C4060800C4078800C4044800C40F1
:100B600000B50F23184001380023032840D802F0B5
:100B7000CBF80418290207233AE01E4BDA6AF02367
:100B80009B0113408022520193422ED08022920179
:100B900093422CD018495B185A4253410522D31A6C
:100BA00026E0144A0321936A0B40022B20D08B428B
:100BB00013D0012B01D10B1C1AE0926A0923D10337
:100BC00016D410E00B4A0C23916A0B40082B0ED070
:100BD0000C2B02D0042B02D107E0062308E0926A16
:100BE0000923D10204D4012302E0032300E00223FD
:100BF000181C00BD00800C4000F8FFFF08B5F8236A
:100C00009B03184080231B0398422ED011D88023C9
:100C10009B02984221D002D8002840D045E0802392
:100C2000DB0298421ED0C023DB0298423DD1002057
:100C300024E0A0235B03984223D005D890235B03D4
:100C4000984232D1012019E0C0235B0398421FD0A3
:100C5000D0235B03984225D027E001F09FFF144B7F
:100C60009A6807E001F0E6FF20E00020FFF780FE31
:100C70000F4B9A6E0F231340D84017E0FFF778FE12
:100C800014E00120FFF774FE094B1A6F0323F2E70B
:100C90000848FFF765FF072804D0082805D101F0B0
:100CA0007DFF03E0FFF72CFE00E0002008BDC046FA
:100CB00000800C400400180010B5042821D802F070
:100CC00023F80C0911030600012002230CE0102078
:100CD000202309E04020802306E08020802340007C
:100CE0009B0001E004200823064C002906D0206266
:100CF000002A04D0E26A1A42FCD000E0236200F02D
:100D000085F810BD00800C4010B50F240440012C64
:100D100004D0002C5ED0032C26D95BE0881E072867
:100D200058D801F0F1FF0F06090C5757570403205C
:100D300000E00120032407E00220041C04E003205B
:100D4000012401E00020042401210A1CFFF7B4FF64
:100D50002148FFF7B5FD214B5C6200F057F801F028
:100D600069FFFFF7ADFD35E0481E082832D801F0D5
:100D7000CBFF05070E31311531311D00002313E083
:100D8000012100200A1CFFF797FF02230CE001203D
:100D9000011C021CFFF790FF012305E0104B042209
:100DA00019680A431A600323002201E0002301228C
:100DB0000A49022C06D18C6A0A48120420400343D7
:100DC000134306E012059B001343886A064A10404D
:100DD00003438B6210BDC04600366E0100800C409C
:100DE00040800C40FCFFFEFFF3FFEFFF10B5064B09
:100DF00040001A68013001248440A2438140101C45
:100E00000843186010BDC04678800C40024BDA6A77
:100E1000024B1A607047C04600800C40040100205D
:100E2000F7B508AC247801941B4C07290AD88D002B
:100E300067680F26AE40A840B743051C381C2843FE
:100E400060600BE00D1C083DAD00A7680F26AE40AA
:100E5000A840B743051C381C2843A0600F4F01254C
:100E600038688D4084466646E84306408A403243EF
:100E70003A600B4A17680740BC461F1C8F40634608
:100E80003B431360074B25621A681040019A8A4061
:100E900010431860F7BDC046FC6000400861004088
:100EA0000C61004010610040F0B5002A0CD0012513
:100EB00024248D404443002B03D01B4EA4192561EC
:100EC00002E01A4EA41965602424444307290CD873
:100ED000154D0F26641967688D00AE40B743161C88
:100EE000AE403D1C354365600DE00F4EA419104E19
:100EF000A7688D19AD000F26AE40B743161CAE4053
:100F00003D1C3543A560002A0CD1012424228C40CD
:100F10004243002B03D0044BD218146102E0034D6E
:100F200052195460F0BDC04600600040106000409F
:100F3000F8FFFF3F70B5041C151C1E1C002A1BD0B7
:100F400002680E4B134003600368320213430360D0
:100F5000002903D10A48FFF751FE011C094BA800E4
:100F6000081A995D694301F0D9FE23689A0702D5F2
:100F7000002800D10120206170BDC046FFFCFFFFAA
:100F800010810200C340000070B5002343630C4B86
:100F9000022203630368012693434A780D1C7240C2
:100FA000B240134303600B7BAA684968041CFFF737
:100FB000C1FF23682A78B3431343236070BDC04642
:100FC000CFFF0100F0B5894A904200D00AE1884B7A
:100FD0009E681F785C881979C020956AC000054218
:100FE0000AD019715C80FD21A80500D5EAE06905E9
:100FF00000D4E8E0FE21E5E0082F00D9DFE0381C4E
:1010000001F082FE051B424F677697ABD3007088D4
:1010100019715C803188C40604D50620090A014094
:10102000F02004E0FE242140850701D50120014382
:101030000120187051625060C7E08020054200D046
:101040007AE040273D4201D101207FE01763778895
:1010500002256648AC46FD0606D519716146197031
:1010600031785C804162B0E065462F4273D05C808D
:1010700019710724C9001C7076183189012900D024
:10108000A3E008214160A0E08020054254D1402720
:1010900002203D425AD075881763032705429BD131
:1010A00059E05C80748819713188E00605D5062006
:1010B000090A0140F020014301E0FE200140042024
:1010C000044201D001242143187001205060516274
:1010D0007BE0802005422FD1402704203D4235D0BF
:1010E00075881763054236D019715C8007216BE063
:1010F000C80030180589A54213D87488013104202E
:10110000C9B2204002D00024032765E701252C4006
:1011100002D05880197138E0012900D85CE75C8062
:10112000F8E719714168601C095D58805162062119
:101130004AE08020054205D01971FF215C801063D0
:10114000597022E04020054204D1062018705C80CE
:1011500019713AE0106305273EE7072018705C809C
:101160001971AC0631D5C900761830895C88D5690B
:10117000844203D27168661C5E800D555988814295
:1011800008D3012801D108215160082119700221DA
:1011900051601AE004245460012816D001388142BD
:1011A00013D11249082048600FE0197180210820EE
:1011B000490018705C800D4207D0116303E019717B
:1011C0005C80FB21597009211970197801200929C7
:1011D00009D10021516301229A56824200D15970EF
:1011E000587800E0FC2040B2F0BDC04600A00040AE
:1011F0000801002010B5174B984201D0FC2026E0D2
:101200009A68D00701D520225A604A88900702D5F3
:1012100008890028F2D0500702D50A8A002AEDD0AA
:101220000D4A00200124107110705470508091609C
:10123000C0225A609A6A910601D5064AD269074AC5
:1012400004481A63FC22D2005A63FFF7BBFE40B287
:1012500010BDC04600A0004008010020CFFF0100E3
:10126000C36ADA0702D4036B0B42FCD17047F7B5AF
:1012700006680325331C2B40041C0F1C01920093AD
:10128000002B05D00121FFF7EBFF331CAB4323609C
:10129000201C0421FFF7E4FF0225201C06216761C2
:1012A000FFF7DEFF6560201C291CFFF7D9FF012333
:1012B0006360019BBB420AD0201C291CFFF7D0FFB2
:1012C000019B201C63610621FFF7CAFF6560009B3C
:1012D000002B04D0201C0321FFF7C2FF2660F7BDBE
:1012E000002906D001290BD1064BC16B194093028E
:1012F00003E0C16B1023994313010A1C1A43C26314
:101300007047C046FFFBFFFFF7B53B4AC36B0D1CA0
:101310008718CA7CC3218B4313432A7DBF0A9201DD
:101320001343C3632B7B041C5A1E93416A7B0197B2
:10133000DB00002A01D004221343AA7B002A01D03B
:1013400010221343EA7B002A02D08022520013436A
:101350002A7C002A02D08022920013436A7CA97C56
:1013600092021343002904D00022022902D80A1C49
:1013700000E003221F1C23682026B343334392035B
:101380002360019800211743FFF730FD2B789A1E48
:10139000D2B2012A13D8201C01211F43FFF760FF9E
:1013A000201C01212660FFF75BFF01980121FFF758
:1013B0001DFDAB6863610223636027601AE0236848
:1013C0009A0705D03E432660201C0121FFF748FF05
:1013D00023682022934323606968201CAA68FFF7D2
:1013E00046FF2978012905D1201CFFF739FF2B780A
:1013F0003B432360F7BDC04600A0F7BF07231A4058
:1014000080235B051A43FC239B0319400430024BE5
:1014100011438000C150704700C00C40002803D029
:10142000012803D1024B00E0024B19607047C0460F
:101430000C00084008000840034B01211A688A4349
:10144000104318607047C04600000840034B002856
:1014500002D001221A6200E01862704700000840C2
:1014600042780378002A01D0022213438278002AAE
:1014700001D004221343014A136070470000084062
:1014800038B5051C141C081E02D10748FFF7B6FB2F
:10149000631E40001818211C01F040FC034B800122
:1014A00040381840686138BD1081020000FF1F00FD
:1014B0000A4B0B4AC360002303604260094A836001
:1014C0004361C3648264084A4365904200D1036566
:1014D0008365904201D10023C3657047AA0E0000C6
:1014E00005100000F91F000000C4004038B50D1CB5
:1014F000041CFFF7DDFF2B8A01221343AA7B21681E
:10150000501E824192020B4313432360AB7C21683F
:101510005A1E93412A7D1B01501E824152070B43E4
:10152000134323602A7B80235B0113436360201CE9
:101530006968AA68FFF7A4FF6B7B002B01D010231A
:10154000E3602B78E36038BD03695A06FCD541633C
:10155000704703695A06FCD5C1637047044B1A787B
:101560000123002A02D0034B03600023181C70479C
:101570005401002048010020F0B5051C0C480478F7
:101580000120002C13D00B4CAE1827880420BE423B
:101590000DDC6788CE18BE4209DC0520002A06D083
:1015A000002B04D0A580E180228163810020F0BD62
:1015B0005401002048010020F0B587B0021C5048BB
:1015C00004780120002C00D198E04E4C2468002CB7
:1015D00000D193E04C48457C002D00D08DE085681B
:1015E000007CED080395012801D058424341581E64
:1015F0008341DBB205935B42DBB20293434B039E14
:10160000DB880025C91889B24E430491A6190195BB
:101610000D9D002D6FD03D4B0D9D1C89A41AAC4231
:1016200000D92C1C0D9D2D1B0D959D885519ADB213
:10163000072C21D80598641900280ED0A54245D260
:1016400007222A40EB080121F31891400A1C19785F
:1016500001350A431A70ADB2F0E7A54236D2072130
:101660002940EB080122F3188A40111C1A78013531
:101670008A431A70ADB2F0E707232B40ED087519C5
:10168000002B0CD001229A402878013A0299D2B25C
:10169000914302400A43083B2A70E4180135E708E9
:1016A00007D0281C02993A1C02F093F8FB00E41AB8
:1016B000ED19002C0AD00123A3401C1C013C2B78FF
:1016C0000299E4B2A3430C401C432C70019D049882
:1016D0000F4B29184A111F20920001400120D558B4
:1016E0008840011C2943019DD15001350195039D7E
:1016F000002276198CE7281C00E00A2007B0F0BD14
:1017000054010020180100201C0100204801002085
:101710000C0A002070B50A4C051C0A48231CC2683C
:1017200041688669B04722680B20002A06D02A60EB
:101730000548FF21102202F04CF8002070BDC04681
:10174000180100201C0100200C0A0020F7B5194EDA
:101750000020337883422BD100F0E6FD002827D10A
:10176000154D291C00F0F6FD002821D1134F381C1F
:10177000FFF7D0FF041E1BD13B680B20002B17D0B6
:10178000EA68696890B28FB2021C7A430C4B211C44
:10179000588058811F809C80DC801F81012333701A
:1017A000201C01920094221C231CFFF705FF201C23
:1017B000FEBDC046540100201C010020180100207D
:1017C00048010020F0B585B0234B00249B6801261A
:1017D000DB080293214B271C1D681F48E319C268D0
:1017E0000393934220D201222A4001D0013412E017
:1017F000002C0FD0029B1A497B430968C918436823
:1018000000970194046AA047002823D1039F041C79
:10181000013700E00137E3196D08DA06DDD10F4B1F
:10182000B200D5580136D8E7002C06D10B4800216C
:10183000102201F0CEFF00200CE0029B084A7B43FF
:1018400011680022C918436800970194046AA047F0
:101850000028EBD005B0F0BD1C0100200C0A0020D0
:1018600018010020F7B5051C0C1C00282ED00029FB
:101870002CD00F688A680420974228DAE368496808
:101880000193994223DA2E68B08884460320674585
:101890001DDBF38899421ADB3389934217DD768981
:1018A000019B9E4213DD89B2B8B2CB188218013277
:1018B000013392B29BB2FFF75FFE21686268A368B2
:1018C000E468E960AC612A616B6100E00520FEBD5F
:1018D00030B587B00524051E1CD0002343600F4B94
:1018E000836001A8FFF73AFE041E13D1019B02900A
:1018F0001A882B605B880390013A013B281C02A9DF
:1019000004920593FFF7AEFF041E03D1281C04497F
:1019100000F040FC201C07B030BDC046FFFFFF00B8
:10192000C840000008B5031C0520002B06D01B682A
:1019300000201A88011C5B88FFF71EFE08BD37B522
:101940000521041E13D04568FFF7ECFF011E0ED1E0
:1019500020682A0C2B0AEDB2009544890089D2B286
:101960006043DBB20190081CFFF726FE011C081C37
:101970003EBD10B5040C0C70010A1170187010BD3A
:10198000F7B50524051C0F1C161C002812D00C30BE
:1019900000F07BFA012400280CD0AD68B8B22A0C04
:1019A0002B0AEDB20194B1B2D2B2DBB20095FFF7CF
:1019B00003FE041C201CFEBDF7B505240F1C161CDD
:1019C0001D1C002811D00C3000F05FFA0124002803
:1019D0000BD02A0C2B0AEDB20194B8B2B1B2D2B23C
:1019E000DBB20095FFF7E8FD041C201CFEBDF0B53E
:1019F00093B0009118A9019204C9071C0D785042B8
:101A00005942002402920393049105900690079195
:101A1000089309920A910B900C900D910E930F92DE
:101A200010921193261C002D16D0EA0711D5082319
:101A30001B196A469958009B381C59180AABE25882
:101A4000019B9A18FFF79CFF012807D843424341A6
:101A5000F6186D080434E6E77042704113B0F0BD2B
:101A6000F0B587B004920CAA1278071C0391059276
:101A70000520002F2ED0009301921C1C381C00233F
:101A8000049AFFF7B4FF031C012B23D80122161B75
:101A90009A4302920025A54219DA6B00002E02DB60
:101AA000013C2B1B5B00059A01330192F618009450
:101AB0002B1C381C0399049AFFF799FF0135012864
:101AC00008D8029A43424341D2180292E3E7029AAD
:101AD0005042504107B0F0BD13B5FF240094FFF70A
:101AE000BFFF16BDF0B589B0071C01910392052018
:101AF000002F5DD0019AC91A1C1C381CD318039AF8
:101B000000F070F8031C012B52D801252A1B029209
:101B10009D430026A64249DA029B002B01DA73009E
:101B200002E0013C331B5B00029A0133D218019B97
:101B30000292019A9B1B0793B218039B0692381CD2
:101B40001A190799069B00F04DF8012830D8434236
:101B50004341ED18019B019A1B19121B0593039B2E
:101B60000492381CF2180499059B00F03BF80128F8
:101B70001ED843424341ED18039B381C1A1B07999A
:101B8000069B00F02FF8012812D843424341ED187C
:101B9000039B381C9A1B0499059B00F023F801282D
:101BA00006D843424341ED180136B3E76842684125
:101BB00009B0F0BD10B5031CDC680120A14200DBB8
:101BC00000205C69C0B2A14201DD0221084399698D
:101BD0008A4201DD042108431B699A4201DA082385
:101BE000184310BDF0B585B0171C1C1C002831D05F
:101BF0000269012397422EDB826997422BDCA142C6
:101C000002DD0B1C211C1C1C46690123B14222DC95
:101C1000C26894421FDB0D1E954200DA151C69460E
:101C20006A466B4680680D310E320F33FFF7A1FE16
:101C3000B9B26F46FF7B6B465A7BA8B29B7B00977D
:101C4000B44200DD341C641B01340194FFF7B4FC82
:101C5000031C00E00523181C05B0F0BDF0B587B0EB
:101C6000051E49D0C0680124814246DB6869814273
:101C700043DC9A4202DD101C1A1C031CA8690124D3
:101C800082423ADC2E69B34237DBB24200DA321CC0
:101C9000834200DD031C9B1A0133039388B29BB27D
:101CA00091B20122FFF768FC041E26D16F466E46F2
:101CB000153716366B46A868391C321C1733FFF7E8
:101CC00058FE6846C17D3A78337800910399201C0C
:101CD0000191211CFFF770FC041E0ED16B69A889CD
:101CE000298AC218AB690132CB18013392B29BB278
:101CF000FFF742FC041C00E00524201C07B0F0BDE7
:101D0000F0B587B003900D1C141C01930C9F0028A4
:101D100069D0994203D13B1CFFF7A0FFB3E00398C1
:101D2000BC4203D1019BFFF75DFFACE0FFF742FF30
:101D3000019904903A1C0398FFF73CFF0026059098
:101D40000296059B04990B43DBB2002B4DD0059AFC
:101D50000B1C1340DBB20120002B00D093E0131CBE
:101D6000002900D00B1C034209D0039B019ADB68B9
:101D7000029302993B1B481B5843511B09E09907EA
:101D80000BD5039A3B1B5269501B5843019B02928F
:101D9000591B01F011F8261811E0590702D5039AD2
:101DA000966903E01A070AD5039B1E690199301B47
:101DB0004B1B5843391B00F0FFFF28180290049A70
:101DC00003980299002A06D0321CFFF7F3FE341C58
:101DD0000490029DB5E7321CFFF7ECFE029B0590D4
:101DE000371C0193ADE705204DE03B1BA74200DC0B
:101DF000E31B01996A1AA94200DD4A1B934202DCE7
:101E00000022049207E0019B01971F1C2B1C251C3C
:101E10001C1C012304930199A94205DA231C3C1CD4
:101E20001F1C2B1C01930D1C019AE31B521B0292D9
:101E30000593A74201DD391B0591029AD60FB6180A
:101E400076107642A74201DB012714E001277F428A
:101E500011E0049B0398002B11D0211C2A1CFFF7D2
:101E60008FFD00280FD105997618002E02DD029A09
:101E7000E419B61A0135019B9D42EADD02E0291CF6
:101E8000221CECE7002007B0F0BD10B5031E10D0F7
:101E90001C680020A1420CDB9C68A14209DC596847
:101EA0008A4206DBDB68D00FD91793424841C0B2A3
:101EB000FFE710BD03688268934201DD0260836022
:101EC0004368C268934201DD4260C3607047F7B562
:101ED0000E1C041C081CFFF7EDFF7768B268F5685C
:101EE000E36836689E4200DA1E1C636900929A42DB
:101EF00000DD009323699F4200DA1F1CA269201CA9
:101F00000192311C3A1C009BFFF76CFE00281BD18C
:101F1000019B9D4200DD1D1CAF4201D1002013E05A
:101F20000137201C00993A1C2B1CFFF797FE002854
:101F30000AD1009A9642F1D0AF42EFD06B1E201C1E
:101F4000311C3A1CFFF78AFEFEBDF0B587B00E1CAF
:101F5000041C081CFFF7AEFF7568B768F268E368F9
:101F600036689E4200DA1E1C63699F4200DD1F1C1A
:101F700023699D4200DA1D1CA36902929A4200DD8A
:101F8000029369466A466B46A068153116321733CC
:101F9000BF1BFFF7EEFC013702980397A9B2471B5E
:101FA000039D0137B0B2AAB2BBB2FFF7E5FA011E3A
:101FB00018D16F436846427D837DC07D01970090B4
:101FC000081CFFF7F9FA011E0CD16369A089218A68
:101FD000C218A3690132CB18013392B29BB2FFF74A
:101FE000CBFA011C081C07B0F0BDF0B587B0049314
:101FF0000CAB1B78041C0392059300D186E00D1CEA
:10200000203DEBB202205E2B00D980E0231C283358
:102010001B78ADB2834209D13A2906D00B2520297D
:1020200004D00D1C303DADB200E00A25238C022007
:10203000AB426CDDE069002702900197A31DDB7FB6
:10204000019883425FD9E31CDB7F012B05D0022B73
:1020500008D102986B001B5A07E0029A525D009269
:10206000002619E0029AAB00D35A0093F8E7009BD0
:10207000DB0716D50398049B811901981A18201CB8
:10208000FFF77EFC012842D843424341FF180098E5
:10209000013640080090B6B2631DDB7FB342E6D83C
:1020A00011E0059A002AF2D0039B04989919019B2C
:1020B000C218201C6368FFF77FFCE3E7059A002A3B
:1020C00009D10136B6B2631DDA7F0333DB7FD31843
:1020D0009E42F3DB0EE0039B04989919019BC21802
:1020E000201C6368FFF768FC012810D84342434175
:1020F000FF18E6E7231DDB7FED18019BADB201332E
:102100009BB201939AE77842784100E0052007B03E
:10211000F0BDF0B587B003930CAB041C01CB1B786A
:102120000593002C33D0002931D0231C28331B7891
:102130000220002B2CD08A18039E0D1C049200272D
:102140000498854220D029780A2909D1A31DDB7F74
:102150000C99039ECA18E31DDB7FD3180C9311E082
:10216000059B201C0093321C0C9BFFF73EFF0128AF
:102170000ED843424341FF18631DDA7F0333DB7FF0
:10218000D318F6180135DBE77842784100E00520E6
:1021900007B0F0BD08B500280AD01C301022002975
:1021A00002D101F016FB03E001F00AFB002000E081
:1021B000052008BD0C4A0D4B0221516059600121D8
:1021C00091610B4A5B6A10780A498000435010788D
:1021D000094980004058834202D912789200535036
:1021E000064B01221A7070470000014000040140B4
:1021F00055010020580100200C000020780100202B
:10220000054B8000C258C158044BC358C808101A67
:1022100083428041404270470C000020580100205A
:1022200010B51748FEF782FA164C00232370237866
:10223000072B21D82378144AD35C002B18D021789F
:102240000F48C9B2FEF766FA10481149114A002337
:1022500043624B621370012343604B601378002B81
:1022600006D10D4B042019698143196130BFF5E790
:1022700023780133DBB2D9E70148FEF752FA10BDEB
:1022800000100040550100202444000000000140DF
:10229000000401407801002000ED00E030B587B077
:1022A000174B01A90A1C183331CB31C211CB11C213
:1022B000144B80229868520002439A605A6C17208F
:1022C00002435A64104B902212051A600A22DA6106
:1022D0000122DA6000225A620C4B0D4A0D481A6046
:1022E0000D4ADA610D4A1A640D4B812252041A61BB
:1022F000FEF7ECF90B4B04221A6007B030BDC04664
:10230000F843000000800C40000001400004014040
:102310000000010A00100040FFFF00000100100A49
:1023200000C00C4000E100E010B5084B1C78002C08
:1023300001D0002009E001221A70054BE358002B60
:10234000F7D0984704340028F7D010BDAC01002026
:102350002C00002008B50A4A0B1C1278002A0AD06B
:1023600000280ADC2C22504306490918181C01F0E9
:1023700027FA002002E0044800E0044808BDC046F7
:10238000AC010020800100200500118002001180B6
:1023900008B50B4B011C1B78002B0DD0094A1368A4
:1023A000002B0BDC581C10602C2253430648C0182D
:1023B00001F006FA002002E0044800E0044808BDED
:1023C000AC0100207C01002080010020050011806C
:1023D0000100118070B5802910D10949094D0C68A0
:1023E000802612013601A218AD190020AA4202D996
:1023F0001860054803E01C600A6000E0034870BDF7
:1024000034000020AD010020010011800200118085
:10241000004870470400118008B500F027F900F06B
:10242000E3F8002008BD70B500240E1C1D1C20011F
:102430003018AC4205D00021102201F0CAF9013455
:10244000F5E7002070BDF7B504200F1C0B2100F04C
:102450002FF9062000F00FF9089E6D460136B6B23E
:102460000635012233021343281C02212B8000F081
:10247000DDF80024099B200138189C4215D010215A
:1024800000F0D4F8099B013B9C4202D101235B423E
:1024900004E0731C1B191B02FF221343281C02219A
:1024A0002B80013400F0C2F8E4E7022000F0E3F8EA
:1024B0000B21042000F00AF90020FEBD08B5082118
:1024C000002000F0F5F80A21002000F0F1F808BD26
:1024D00010B50C1E02D0FFF7F1FF07E0081C0A211F
:1024E00000F0F4F8201C082100F0F0F8002010BDE6
:1024F00030B58DB000F0BAF800F076F800F0C0F812
:102500000022131C0F21022000F0C4F80022131C2B
:102510000721032000F0BEF80022131C0B21042029
:1025200000F0B8F800200821021C031C00F0B2F8EB
:1025300000200A21021C031C00F0ACF80020011C42
:10254000021C031C00F0A6F80022131C0A21042020
:1025500000F0A0F804200A21402200F0C5F8041E73
:1025600030D11A4A01A801920122027480224260ED
:10257000C2608260164A44744261164A8261164AF9
:10258000C261164A0262164A4262164A8262FFF726
:10259000FFFE041E16D1FFF791FF0B21042000F06F
:1025A00087F8062000F067F868460221023004250B
:1025B000058000F03BF8022000F05DF8281C0B219C
:1025C00000F084F8201C0DB030BDC0462C44000043
:1025D000D1240000D523000011240000472400006E
:1025E000272400001924000030B587B00A4A6B4642
:1025F00023CA23C323CA23C3084D09480121FEF778
:1026000075FA084B281C69460293FEF76FFF064BCC
:1026100000206B6507B030BD4444000000C400409A
:1026200000320200E06735000A03000038B5041CE0
:102630000D1C002D11D0012D01D0E20706D5217807
:102640000948FEF781FF013D0134F2E72188064881
:10265000FEF77FFF023D0234EBE7034B1B699A064E
:10266000FBD5002038BDC04600C4004008B500F0CE
:1026700071F9002008BD08B500F04CFA002008BD33
:1026800008B503480121FEF731FA002008BDC04615
:102690000072020010B5141E05D1C0B20422FEF76C
:1026A00003FC201C00E0014810BDC046010013805F
:1026B00001238B40191CC0B224235843024BC0187D
:1026C000016100207047C0460060004001238B403C
:1026D000191CC0B224235843024BC018416000208B
:1026E0007047C04610600040F7B5051C0C1C161C56
:1026F00004284ED10A294CD127480121FEF7F6F9CA
:10270000A021022089030122FEF778FE234B244AF0
:102710009968281C0A40802189000A439A609A68B7
:10272000211C2A439A6000232A1CFEF7BDFB1D4989
:1027300001AC201C1831032201F042F81A4B1B6C2B
:102740002B4203D119480121FEF7D0F9184809217D
:10275000FEF7DAFA17480221FEF75CF90121154865
:10276000FEF7C4F900250127201C25706570A770AD
:10277000FEF776FE0F48FEF741FA311C00F0CEFA64
:10278000411E281CFEF74AFE381CFEF755FE281C89
:1027900000E00948FEBDC0460042020000C00C40F7
:1027A000FFF8FFFF4444000000800C4000230400B9
:1027B0000200060030040800010013807FB50121EB
:1027C000041C1E48FEF792F91D4B2168994233D133
:1027D0001C480121FEF78AF9207961790A22012338
:1027E000FEF762FB0A22A079E1790123FEF75CFB88
:1027F000257909226079012324211E1C6943864022
:10280000301C114E013A8919086060791E1C8640FF
:102810004E60002AEED1227A032112020A43206878
:1028200069460B704B70E368826301932269237DD4
:1028300002920B73FEF7A8FB7FBDC0461081020019
:1028400000A0004000B202001060004038B5051C36
:10285000FEF7D0FC054C40B2012806D1013C002C0B
:1028600003D0281CFEF7AEFBF5E738BDE19304006A
:10287000F0B589B003AC171C0422628001AA218044
:10288000137002AD01230226211C049223810695B8
:102890002682FFF7DBFF002802D000233B6007E021
:1028A0006B78032293432A78301C12029B183B60FA
:1028B00009B0F0BDF8B51C1CE523071C0E1C151C47
:1028C000FFF7D6FF022802D00120404216E02A6816
:1028D0000B4B381C53430B4A5B0B9B182B60311C72
:1028E000221CE023FFF7C4FF0228EDD12268064B2B
:1028F00000205343054A5B139B182360F8BDC04674
:10290000093D000090E8FFFFCD550000FE48FFFFA5
:1029100030B589B003AB141C042219805A80694673
:10292000FC220A70C9224A7000AA049202221A816B
:1029300008221A82191C01AD0695FFF787FF0023B4
:10294000984204D19C4201D02B7823700123181C9B
:1029500009B030BDF0B58BB0654C09A865490322BC
:1029600000F02EFF236C00200190590705D4624827
:102970000121FEF7BBF8012201926048FEF7F0F852
:10298000E26A4023171C032106905C481F40FEF7B3
:10299000BBF95B48FEF710F88021079049005848C2
:1029A000FEF738F8A36D002001240290234204D1E1
:1029B0005348211CFEF79AF8029472B6514B1A68DC
:1029C000511C01D001321A604F4C01262568354058
:1029D00012D02268A368E068049300230392059054
:1029E000E5692360E3610723A3618021C023474A8F
:1029F0004901B340D15003E00595049503952E1C81
:102A0000002309A88370FEF72BFD8022404B520162
:102A10001A603F4B1A6852001A600BD061686268F6
:102A20009142FCD0384A52681B68013BFDD863686C
:102A30009342EED0364B1A6852081A601B6809227E
:102A4000013A002A17D05B0815D0314908681843AD
:102A500008606068844660688445FCD02A48406805
:102A600009680139FDD861688142E9D028490868C0
:102A700098430860E4E7234A1368002B04D0013B25
:102A80001360002B00D162B6002E11D007991C48AC
:102A9000FDF7C0FF0120FEF7D9FC0499059A039BBE
:102AA000A1600020E2602360E561FEF7CFFC02E058
:102AB000301CFEF7C1FC0298002803D0104800210A
:102AC000FEF714F80699032902D00C48FEF71CF90A
:102AD000002F04D10120391C3A1CFEF7EDF8019AB1
:102AE000002A03D004480021FEF700F80BB0F0BD27
:102AF00000800C4060440000002304000200060037
:102B000030040800140100200000084000E100E04B
:102B1000380000200849031C002B0CD0013B882200
:102B20001202003253430A68D80AD20A504380097D
:102B300001D00138FDD87047380000200648804792
:102B40000649074A074B9B1A03DD043BC858D0507F
:102B5000FBDC054800470000552C00003C45000008
:102B600000000020B000002061010000FEE7FEE749
:102B7000FEE7FEE7FEE7FEE7FEE7FEE7FEE7FEE72D
:102B8000FEE7FEE7FEE7FEE7FEE7FEE7FEE7FEE71D
:102B9000FEE7FEE7FEE7FEE7FEE7C0461D4AF0233C
:102BA000D16A9B010B40802149018B422DD08021AD
:102BB00089018B4205D0802109018B4204D1164B3B
:102BC00000E0164B186824E0D268E023DB001340D5
:102BD00080229200934212D007D8002B11D080227D
:102BE000520093420FD10E4813E0C022920093424C
:102BF0000ED08022D200934205D10A4809E00A484B
:102C000007E00A4805E0002003E08020000200E021
:102C10000748704700800C40400000203C00002026
:102C200040B56400406F4001C0D8A700804F12003B
:102C3000809FD50008B5FFF7B1FF044B5A680F23FA
:102C40001340D840024B186008BDC04600800C40BD
:102C50001C0A00207047802000027047FA20800084
:102C600070470000014B18687047C0463C000020C8
:102C700008B50B480121FDF739FF0A480121FDF78E
:102C800035FF02200A2104220023FEF70DF902205D
:102C90000B2104220023FEF707F9002008BDC046DF
:102CA000108102000072020001280DD8084BC000FC
:102CB000C15C1818436801229A4024234B430549FC
:102CC00000205B185A6001E0012040427047C04676
:102CD000644400001060004001280DD8084BC0007B
:102CE000C15C1818436801229A4024234B430549CC
:102CF00000205B181A6101E0012040427047C04685
:102D0000644400000060004002B471464908490074
:102D1000095C49008E4402BC7047C046002934D08B
:102D20000123002210B488422CD301242407A1429D
:102D300004D2814202D209011B01F8E7E400A1425A
:102D400004D2814202D249005B00F8E7884201D3F5
:102D5000401A1A434C08A04202D3001B5C082243CD
:102D60008C08A04202D3001B9C082243CC08A0423E
:102D700002D3001BDC082243002803D01B0901D02A
:102D80000909E3E7101C10BC7047002801D000209F
:102D9000C04307B4024802A14018029003BDC046D8
:102DA000D90000000029F0D003B5FFF7B9FF0EBC31
:102DB0004243891A1847C046002941D010B4041C68
:102DC0004C40A44601230022002900D54942002896
:102DD00000D5404288422CD301242407A14204D2CA
:102DE000814202D209011B01F8E7E400A14204D2AA
:102DF000814202D249005B00F8E7884201D3401AC1
:102E00001A434C08A04202D3001B5C0822438C08E2
:102E1000A04202D3001B9C082243CC08A04202D34C
:102E2000001BDC082243002803D01B0901D009093C
:102E3000E3E7101C6446002C00D5404210BC7047EC
:102E4000002806D003DB0020C043400801E08020BA
:102E5000000607B4024802A14018029003BDC04614
:102E6000190000000029EBD003B5FFF7A7FF0EBC47
:102E70004243891A1847C0467047C046F0B55F46BE
:102E800056464D464446F0B446024500C00F85B054
:102E90000F1C760A2D0E804641D0FF2D26D08024AF
:102EA000240400212643F6007F3D89468B46F90F16
:102EB0007C027800640A000E00918A463CD0FF280C
:102EC00034D080231B041C430023E4007F3801938B
:102ED000009F4346019A7B4049469C4611430F2977
:102EE00000D970E0754F89007F58BF46002E3ED153
:102EF0000822022391469B46D9E75A46341CC24613
:102F000001920199022937D0032900D1CEE001298D
:102F100000D0AAE053460B400022002632E0002EEB
:102F200019D10421012289469346C0E7221C531E71
:102F30009A4102320192CBE701270197002CC7D0BA
:102F4000201C00F0DFFB431F9C4076235B420021E6
:102F5000181A0191BCE7301C00F0D4FB7625431F02
:102F60009E406D4200232D1A99469B469FE70C23F5
:102F7000032199468B469AE7D446012367463B4096
:102F8000FF2200267602D205700ADB0710431843A1
:102F900005B03CBC90469946A246AB46F0BD002326
:102FA000474EFF22EEE700220026EBE78020C00319
:102FB00006423BD0044239D1061C26437602760AEB
:102FC000009BFF22DEE7281A039076016401A642E7
:102FD00039D3361B1A2201230120311C5B007600F5
:102FE000002901DBB44201D8361B0343013A002A11
:102FF000F3DC741EA641341C1C43039A7F32002A62
:1030000027DD630704D00F232340042B00D00434B2
:10301000270103D52B4B039A1C408032FE2A0BDD7F
:10302000012361460B40FF220026ABE706437602F0
:10303000760A4346FF22A5E7A40101236746660AF4
:10304000D2B23B409EE7039F1B22013F0397002320
:10305000C2E77E23039F5B42DB1B1B2B07DD0123A3
:1030600061460B40002200268CE7D446C5E7221CAF
:10307000DA40039B9E339C40231C5C1EA3411343F8
:103080005A0704D00F221A40042A00D004335F01EB
:1030900005D5012361460B400122002672E79E01FF
:1030A000624601231340760A00226BE78026F6036E
:1030B00026437602760A5346FF2263E774440000F3
:1030C000FFFF7F00FFFFFFF7F0B55F4656464D4616
:1030D0004446F0B44402460083B00F1C640A360E26
:1030E000C50F002E41D0FF2E22D080231B040020CC
:1030F0001C43E4007F3E82468046391C4B007F0221
:10310000C90F7F0A1B0E8B463BD0FF2B34D0802289
:1031100012041743FF007F3B00215A466A40019288
:1031200052460A430F2A62D87A489200825897463C
:10313000002C3FD10822022392469846DDE70195F4
:10314000404602282AD1019A01251540FF23002478
:103150006402DB05600AED071843284303B03CBC5A
:1031600090469946A246AB46F0BD002C27D10420DC
:10317000012282469046C0E7391C4A1E9141023125
:10318000CBE70121002FC8D0381C00F0BBFA431F49
:103190009F4076235B421B1A0021BEE7032800D123
:1031A000ADE001284ED1019842461040C5B200233F
:1031B0000024CDE70C2303209A4680469DE7201C7F
:1031C00000F0A0FA7626431F9C4076420023361A70
:1031D0009A46984691E700254F4CFF23B8E75B4697
:1031E0003C1C01938846ABE73C1C8846A8E7250CAD
:1031F00024043A0C240C3F04F6183F0C211C231C19
:10320000794353436F435543FB180A0C9B18B1464F
:103210009F4202D980225202AD1809041A04090CF7
:10322000521894011B0C611E8C41920EED18144330
:10323000AD012C43230105D5012263080120144070
:1032400081441C434B467F33002B2DDD600704D0A7
:103250000F222240042A00D00434220103D52F4B30
:103260001C404B468033FE2B17DD019B01251D4082
:103270000024FF236CE78020C003044208D00742EB
:1032800006D1041C3C436402640A5D46FF235FE7E9
:1032900004436402640AFF235AE70198A40101254C
:1032A000640ADBB2054053E77E235B424A469B1A21
:1032B0001B2B05DD019B01251D400024002347E752
:1032C000221CDA404B469E339C40231C5C1EA341CB
:1032D0001343580704D00F221A40042A00D00433A5
:1032E0005A0105D5019B01251D40002401232FE72C
:1032F00001989C010125640A0540002328E78027E6
:10330000FF03019B3C43640201251D40640AFF2327
:103310001EE7C046B4440000FFFF7F00FFFFFFF739
:10332000F8B5C20F430244004D024800240E161C9B
:103330009B09000EC90FAD09FF2800D183E00127CA
:1033400079408A425CD0221A002A00DC8EE00028F4
:103350001ED1002D00D07AE0580704D00F221A4069
:10336000042A00D004338021C904012219403240CC
:1033700000293AD00134FF2C00D183E09B015B0A85
:103380005B02E4B2E405580AD20720431043F8BDBB
:10339000FF2CE1D08021C9040D431B2A00DD2FE161
:1033A000291C2020D140821A95406A1E95410D4368
:1033B0005B1B5801D0D59B019F09381C00F0A2F976
:1033C000421F974094425FDC141B1F231B1B3A1CB7
:1033D0009F40611C3B1CCA405F1EBB41134300243D
:1033E000BAE7131EB8D100230022DB08FF2C04D15A
:1033F000002B47D08020C00303435B025B0ABFE77A
:10340000211A002944DD002827D0FF2CA4D08020D9
:10341000C00405431B2900DDF0E0281C2027C8401C
:10342000791A8D40691E8D4105435B19590100D4FD
:1034300092E70134FF2C59D0724901221A400B4007
:103440005B08134388E7002D00D07AE777E7013A5D
:10345000002AADD0FF2CA0D17EE7002D00D17BE764
:1034600001390029E1D0FF2CD4D175E7002A1BD106
:10347000621CD2B2012A4ADD5F1B7A0123D5EF1A02
:103480000E1C9AE700237BE75E4BA41A3B4063E7E0
:10349000002945D1611CC8B2012829DDFF2924D0AB
:1034A000EB185B080C1C57E7002C13D0FF2818D032
:1034B0008024E404524223431B2A4CDD0123EB1AEF
:1034C000041C0E1C75E7002F00D076E700230022B5
:1034D00000248AE7002B3AD0D243002AEFD0FF28FD
:1034E000EAD12B1CFF240E1C36E7FF2400237CE7C7
:1034F000002C5BD1002B7FD0002D00D12CE75B1975
:10350000580100D428E73F4A0124134024E7002C47
:1035100015D1002B40D1002D62D02B1C0E1C1BE7B7
:10352000002C21D1002B54D0C943002904D0FF28FE
:103530004CD01B2957DD01235B19041C76E7002BB7
:1035400019D1002D48D02B1C0E1CFF2404E72B1C86
:10355000041C0E1C00E71C1C2026D440B21A934009
:103560005A1E93412343AAE7FF282FD08024E40466
:1035700049422343DDE7FF24002D00D1ECE6802201
:10358000DB08D203134204D0ED08154201D12B1CF5
:103590000E1CDB00FF24DFE6002D00D1DCE65A1B09
:1035A000500100D41DE7EB1A0E1CD5E6002B0DD000
:1035B000FF24002D00D1CFE68022DB08D203134286
:1035C000E7D0ED081542E4D12B1CE2E72B1CFF24C9
:1035D000C2E62B1C041CBFE600220B4BFF2404E7B1
:1035E000231C002201E71C1C2027CC40791A8B40A9
:1035F000591E8B4123439FE72B1CADE6012514E7A1
:103600000125D5E6FFFFFFFBF8FFFF034302590A40
:103610004300C20F1B0E00207E2B0DDD9D2B0CDC0A
:10362000802000040143952B0ADC9620C31AD94060
:103630004842002A00D1081C7047034BD018FBE712
:10364000963B9940F4E7C046FFFFFF7F70B5041E2C
:103650003CD0C60F00D04442201C00F053F89E23FB
:10366000251C1B1A962B0CDC083884406402640A63
:10367000DBB2321C6402DB05600AD2071843104338
:1036800070BD992B0ADD0522121A211CD1400A1C9B
:10369000011C1B318D40691E8D411543052801DD3C
:1036A000421F9540164C2C406A0704D00F2215404B
:1036B000042D00D0043461010CD59F23181AFF2873
:1036C0001AD0A401640AC3B2321CD3E7002200233B
:1036D0000024CFE7E408FF2B04D06402640ADBB2C5
:1036E000321CC7E7002C04D08020C00304436402CE
:1036F000640A321CFF23BDE7321CFF230024B9E714
:10370000FFFFFFFB1C2101231B04984201D3000C87
:1037100010391B0A984201D3000A08391B09984244
:1037200001D30009043902A2105C40187047C0465A
:10373000040302020101010100000000000000007A
:10374000C317C01858407047084B10B5041C002B15
:1037500002D0002100E000BF054B1868836A002BEF
:1037600000D09847201C00F06DFCC046000000000F
:10377000F844000070B50E4B0E4D0024ED1AAD104C
:103780001E1CAC4204D0A300F35898470134F8E75C
:1037900000F05AFC084B094D0024ED1AAD101E1C18
:1037A000AC4204D0A300F35898470134F8E770BD49
:1037B000A8000020A8000020A8000020AC000020E5
:1037C00010B50023934203D0CC5CC4540133F9E715
:1037D00010BD031C8218934202D019700133FAE71E
:1037E000704700000CB430B5164B9DB00C1C1D6822
:1037F00004D58B2301202B6040421DE0822302A9C7
:103800009B008B810023029008619C4200D0631EC4
:103810008B604B6101235B42CB81209A21AB281C3A
:10382000019300F079F8421C01DA8B232B60002C05
:1038300002D0029A002313701DB030BC08BC02B045
:103840001847C046A40000200023C25C0133002AB0
:10385000FBD1581E70470000F0B58D6885B0071C7D
:103860000C1C03920193AB4245D390228B89D2006A
:1038700013423DD062690326564309692068F20F5E
:10388000401A96190290021C019801321218761003
:10389000964200D2161C381C5A050FD5311C00F078
:1038A00021FB051E13D0029A2169FFF789FFA28927
:1038B000184B134080221343A38111E0321C00F007
:1038C00065FB051E0CD1381C216900F0C3FA0C23DE
:1038D0003B60A389402213430120A381404217E0AB
:1038E000029B2561ED1825606661019DF61AA660B0
:1038F0000198A84200D2019D2A1C2068039900F07B
:1039000090FAA2680020531BA36023685D1925600C
:1039100005B0F0BD7FFBFFFFF0B59FB005938B892D
:1039200003900E1C171C19060FD53269002A0CD102
:10393000402100F0D7FA30603061002803D10399AC
:103940000C230B60C9E04023736106AD00236B615B
:1039500020236B763023AB763C1C2378002B03D1DD
:10396000E21B029211D003E0252BF9D00134F4E7D9
:103970000398311C3A1C029BFFF76EFF013000D107
:10398000A6E06969029A8B186B612378002B00D13D
:103990009EE0012252426A606A4600235B32013493
:1039A0002B60EB60AB601370AB654E4F2178381C19
:1039B000052200F02BFA002807D0C71B2B68012036
:1039C000B840184328600134EFE72B68D90603D5C7
:1039D0006A4620215B3211701A0703D56A462B21F3
:1039E0005B32117022782A2A01D0099B0EE0059AD9
:1039F000111D12680591002A01DB099204E0524270
:103A0000EA60022213432B60013409E02278303A45
:103A1000092A04D80A214B4301349B18F6E709937D
:103A200023782E2B18D163782A2B09D1059B0234D9
:103A30001A1D1B680592002B0DDA01235B420AE078
:103A4000013400232278303A092A04D80A214B4352
:103A500001349B18F6E70793234F2178381C032283
:103A600000F0D4F9002806D0C71B2B684020B840CE
:103A700018432860013421781C480622671C2976E7
:103A800000F0C4F9002812D0194B002B06D1059B79
:103A90000722073393430833059314E005AB0093E3
:103AA0000398291C321C134B00E000BF07E005AB54
:103AB00000930398291C321C0E4B00F091F80490DF
:103AC0000499013104D06A69049953186B6143E782
:103AD000B3895A0601D40B9801E0012040421FB07F
:103AE000F0BDC046FC440000024500000645000051
:103AF0000000000059380000F7B5151C01930A6951
:103B00008B68061C0C1C934200DA131C221C2B60D1
:103B100043321278002A01D001332B6020688006DE
:103B200002D52B6802332B60216806270F401FD077
:103B3000231C43331B785A1E9341226892061FD5DB
:103B4000E11840313020C870211C5A1C45310978D9
:103B5000A21840320233D17012E0221C301C0199AD
:103B600019320123089FB847013011D0009F013757
:103B70000097E0682968009F431A9F42EDDBD7E772
:103B8000221C301C01994332089FB847013002D1F2
:103B90000120404223E0206806212B68E2680140B2
:103BA0000025042903D1D51AEB43DB171D40A26879
:103BB00023699A4201DDD31AED1800270097009F70
:103BC000AF420BDA221C301C01991A320123089FE4
:103BD000B8470130DCD0009F0137EFE70020FEBD81
:103BE000F0B58BB007930D1C0B7E43350692059004
:103BF0000C1C109A04956E2B00D1A7E011D8632BF2
:103C000022D009D8002B00D1B0E0582B00D0C0E062
:103C100045310B707B4D4EE0642B1CD0692B1AD0C4
:103C2000B7E0732B00D1A5E009D86F2B29D0702BFA
:103C300000D0AEE00E68202333430B6036E0752BD6
:103C40001FD0782B32D0A4E013680D1C191D42350B
:103C500011601B689FE0216813680E0603D5191DCB
:103C600011601E6805E04806F9D5191D1160002194
:103C70005E5E644B002E3BDA049D2D2276422A7054
:103C800036E0216813680E0603D5191D11601E6801
:103C900004E04806F9D5191D1E881160594B227E93
:103CA000039308276F2A1ED00A271CE0231C7821C3
:103CB0004533554D197011682368081D0395106030
:103CC0001E0601D50E6802E05806FBD50E88D907FE
:103CD00002D52022134323601027002E03D122682F
:103CE00020239A432260231C002243331A7001E0F0
:103CF00003930A276368A360002B03DB2568042273
:103D000095432560002E02D1049D002B0ED0049D0A
:103D1000301C391CFFF746F80398013D435C301C0A
:103D20002B70391CFEF7FAFF061EF1D1082F09D1BE
:103D30002168C90706D5626823699A4202DC013D01
:103D400030232B70049E731B23612AE008681368DC
:103D50004969050604D5181D10601B68196005E047
:103D60004606F8D5181D10601B68198000232361D2
:103D7000049D16E01368191D11601D68281CFFF7CB
:103D800063FD63682061984200D923612069606007
:103D900004E0251C42352B7001232361049E00237F
:103DA0003370079E05980096211C09AA069BFFF711
:103DB000A3FE013002D10120404221E02A1C0598D7
:103DC00006992369079DA8470130F4D02668B607F5
:103DD00005D4099BE068984212DA181C10E000250F
:103DE000E0680999431A9D42F3DA221C0598069966
:103DF00019320123079EB0470130DCD00135EFE7CF
:103E00000BB0F0BD0D4500001E450000C9B2821880
:103E1000904204D003788B4202D00130F8E70020B2
:103E2000704770B5814201D300230CE08C18A0428A
:103E3000FAD28518131C013B0BD351426618F65C6D
:103E40006918CE54F7E7934203D0CC5CC4540133D5
:103E5000F9E770BD30B5002940D004390B68002B5C
:103E600000DAC9181E4A1368141C002B02D14B60DB
:103E7000116033E099420FD208680A189A4205D1BE
:103E800013685268C01808604A6000E04B60216007
:103E900024E08A4203D8131C5A68002AF9D11D680D
:103EA0005C198C420BD10968691858181960904246
:103EB00014D114685268091919605A600EE08C42D6
:103EC00002D90C23036009E008680C18944203D15E
:103ED00014685268001908604A60596030BDC046D5
:103EE000B409002070B50323CD1C9D430835061C82
:103EF0000C2D01D20C2501E0002D3FDB8D423DD37E
:103F0000204B1C681A1C211C002913D00868431B75
:103F10000DD40B2B02D90B60CC181EE08C4202D1C1
:103F2000636813601AE0486860600C1C16E00C1CA3
:103F30004968E9E7144C2068002803D1301C00F0E0
:103F40004BF82060301C291C00F046F8431C15D0AB
:103F5000C41C03239C4384420AD12560201C0B30DF
:103F60000722231D9043C31A0BD05A42E25008E0A7
:103F7000211A301C00F030F80130EED10C233360F0
:103F8000002070BDB4090020B0090020F8B5061C5F
:103F90000C1C151C002904D1111CFFF7A3FF041CE5
:103FA00018E0002A03D1FFF755FF2C1C12E000F0A7
:103FB00025F8A8420ED2301C291CFFF793FF071EDC
:103FC00007D0211C2A1CFFF7FBFB301C211CFFF72C
:103FD00041FF3C1C201CF8BD38B5074C0023051CD4
:103FE000081C236000F014F8431C03D12368002B45
:103FF00000D02B6038BDC046200A002004390B6871
:10400000181F002B02DAC8581B18181F7047000031
:10401000094A1368002B0CD018186946884202D848
:104020001060181C7047054B0C2201201A6040429A
:10403000F8E7034B1360EFE7B8090020200A0020DF
:10404000280A0020FEE7C046F8B5C046F8BC08BC08
:104050009E467047F8B5C046F8BC08BC9E467047FF
:104060000000000000000000FF0000000000000051
:10407000010103000000000000A00040040D040C3A
:104080000600000000000000486B01000000000076
:104090002564004354656D703A202532642E253125
:1040A000642043200A536574506F696E743A20256A
:1040B000642043200A48756D69646974793A2564FF
:1040C0002525000809110800D840000020030164DC
:1040D000080802000100000000186C6C10CE3808BF
:1040E000600C0000000000007C307C7CC6FE7CFE82
:1040F0007C7C000070001C7C7C7C7E7C7EFEFE7CD8
:10410000C63C78C606C6C67C7E7C7E7C7EC6C6C69D
:10411000C6C6FE7C007C10000C0006006000380063
:10412000060000060C000000000000000000000077
:104130000000003018188C000000000000186CFE11
:10414000FC6A2C1830186C18000000C0C638C6C6AF
:10415000C606C6C0C6C61818387C38C6C6C6C6C687
:10416000C60606C6C618306606EECEC6C6C6C6C6A3
:1041700018C6C6C6C6C6C00C066038000C000600CD
:1041800060000C00061830060C0000000000000063
:1041900018000000000000181830D60000000000D1
:1041A000001848FE162E2C18183038180000006031
:1041B000C63060C0C6060660C6C618181C7C70C62D
:1041C000F6C6C606C6060606C618303606FEDEC6A3
:1041D000C6C6C60618C6C6C66CC6600C0C606C00A7
:1041E000043C3E3C7C3C3C3C3E0000660C6E3E3C4D
:1041F0003E3C363C186666C666667E18183062001D
:10420000000000000018006C7C10DC001830FE7EFE
:104210001C7E0030C6303070FE7E7E307CFC00009C
:104220000E00E070F6FE7E06C61E1EF6FE18301E5C
:1042300006D6F6C67EC67E7C18C6C6D638FC300CBE
:104240001860C6000060660666660C666618303642
:104250000CD6666666666E067C6666C63C66300C84
:104260000060000000000000000000FED0E86600D2
:104270001830387E1C7E1C18C63018C0C0C0C61846
:10428000C6C018181C7C703076C6C606C60606C6A0
:10429000C618303606C6E6C606B6C6C018C6C6FE7E
:1042A0006CC0180C30600000007C6606667E0C7CDA
:1042B0006618301E0CD666663E56063C186666D6F4
:1042C000187C18181830000000000000001800FECC
:1042D0007EAC660030186C1818001C0CC6300CC67A
:1042E000C0C6C60CC6C61818387C380006C6C6C676
:1042F000C60606C6C618366606C6C6C60666C6C65C
:1043000018C66CEEC6C00C0C606000FE0066660647
:1043100066060C60661836360CC6666606260660AB
:1043200018663CD63C600C181830000000000000F5
:104330000018006C10E6DC00600C00180C001C0675
:104340007C78FE7CC07C7C067C7C000C70001C3081
:104350007CC67E7C7EFE06FCC63C1CC6FEC6C67CB9
:1043600006DCC67C187C38C6C67EFE7CC07C00FE9F
:10437000007C3E3C7C3C0C3E66701C6638C6663C4D
:10438000065C063E707C18FC663E7E301818000005
:10439000000000000000000000000000000000001D
:1043A000000000000000000000000000000000000D
:1043B00000000000000000000000000000000000FD
:1043C00000000000000000000000000000000000ED
:1043D00000000000000000000000000000000000DD
:1043E00000000000000000000000000000000000CD
:1043F0000000000000000000FF000000FF000000BF
:10440000FF000000FF000000FF000000FF000000B0
:104410000000000007000000070503003D00000049
:1044200001000000000000010100000053686172FB
:1044300070204C53303133423744483033202331DD
:1044400000000000050000000000000040420F00D6
:104450000501000000000000000000000100010054
:1044600001000100020000000A000000020000003C
:104470000B000000C62F00007A2F0000A62F0000BE
:10448000022F0000A62F00009E2F0000A62F000084
:10449000022F00007A2F00007A2F00009E2F0000CC
:1044A000022F0000FA2E0000FA2E0000FA2E000063
:1044B000AC2F0000EE310000E8310000E8310000D0
:1044C000DE3100004031000040310000D6310000F4
:1044D000DE31000040310000D631000040310000E4
:1044E000DE3100003E3100003E3100003E31000070
:1044F000763200004300000044000020232D302BC2
:104500002000686C4C0065666745464700303132D4
:10451000333435363738394142434445460030312B
:10452000323334353637383961626364656600008A
:044530000000000087
:084534002CBCFF7F0100000018
:10453C0010000000190000006900000001000000DC
:10454C00010000000100000001000000010000005B
:10455C00010000000100000001000000F124000037
:10456C0000000000AD0100200010000000800000E1
:10457C0000366E010000000000000000000000008A
:10458C00000000000000000000000000000000001F
:10459C0000000000F44400000000000000000000D7
:1045AC0000000000000000000000000000000000FF
:1045BC0000000000000000000000000000000000EF
:1045CC0000000000000000000000000000000000DF
:1045DC00000000004400002029010000010100003F
:0400000300002B3D91
:00000001FF
