:1000000000100020D53C0000073D0000093D000025
:10001000053D0000053D0000053D0000053D0000D8
:10002000053D0000053D0000053D00000B3D0000C2
:10003000053D0000053D00000D3D00000F3D0000A6
:10004000113D0000AD0C0000153D0000173D000003
:10005000050C00001B3D0000B50C00001F3D00001A
:10006000213D0000233D0000253D0000273D00000C
:10007000592E00002B3D00002D3D00002F3D0000BB
:10008000313D000000000000000000000000000002
:100090000000000000000000000000000000000060
:1000A0000000000000000000000000000000000050
:1000B0000000000000000000000000000000000040
:1000C0000000000000000000000000000000000030
:1000D0000000000000000000000000000000000020
:1000E0000000000000000000000000000000000010
:1000F0000000000000000000000000000000000000
:1001000010B5064C2378002B07D1054B002B02D0ED
:10011000044800E000BF0123237010BDC800002088
:10012000000000002065000008B5084B002B03D03C
:100130000748084900E000BF07480368002B03D0C8
:10014000064B002B00D0984708BDC04600000000B9
:1001500020650000CC000020C80000200000000046
:10016000164B002B00D1144B9D46402292029A1A46
:10017000924600218B460F461348144A121A04F087
:1001800070FB0F4B002B00D098470E4B002B00D07C
:1001900098470020002104000D000D48002802D0DF
:1001A0000C4800E000BF04F02DFB2000290000F007
:1001B00093FB04F011FBC046000008000010002073
:1001C0000000000000000000C8000020B40A002069
:1001D000000000000000000038B52023041C0D1EA4
:1001E00001DA4D422D232370FA2100236371281C6C
:1001F000890003F0B7FE081C642103F05DFE2E2386
:100200003030E37020710D49281C03F0ABFE081C50
:10021000FA21890003F050FE3030A0700849281CF4
:1002200003F0A0FE081C054903F046FE3030C0B2C2
:10023000302800D12020607038BDC0461027000053
:10024000A086010010B502F029F9002800D0FEE7D1
:1002500001F06EFD002800D0FEE7054C201C01F0E7
:1002600029FE002800D0FEE7024B6060A36010BDAD
:10027000E4000020FFFFFF00F0B585B0324C071C02
:10028000201C151C03911E1C01F04BFE002D19D0E3
:100290000025282300932D490F2205230195201CBA
:1002A00002F0ABF83223009329490F220523019570
:1002B000201C02F0A2F83C2300930195201C254944
:1002C0000F2220E01423009323490E2205230195D9
:1002D000201C02F092F81E23009320490E220523D1
:1002E0000195201C02F089F8282300931C490F2255
:1002F00005230195201C02F080F832231949009350
:100300000195201C0D22052302F077F80E48732377
:10031000002E04D000930023019313490CE0002F1A
:1003200002D0039A002A04D10093002301930F49BD
:1003300002E00F49009301961022052302F05DF8B8
:1003400001F032FD05B0F0BDE40000209C6000002B
:10035000AB600000BB600000CB600000DA60000012
:10036000E7600000F7600000056100001261000016
:1003700022610000F0B591B0049316AB0B9204CB50
:1003800002901B78079106938024002801DAC400AC
:100390006442029D0026029B2A1C002B00DA3032A8
:1003A000CA4FB3B20593191CD2190020231C01F0C7
:1003B0003DFB0390802C0BD0029A8023BF1A1B1B9D
:1003C000A0B27A19059901F031FB039B0343039313
:1003D000039A002A00D0FEE701363035802EDAD1AC
:1003E000069B002B09D0039A032300930192B8487F
:1003F000B84910221C2302F000F8169B002B02DDE6
:100400001D1C103D01E0169D1035079B029A092026
:1004100058430521D40003F04FFDFA22D20186187B
:10042000311C0DA8FFF7D8FE0DA804F022FA2623F0
:100430001B1B0393ED0028235B1B00930023021C6E
:1004400001930DA9039BA24801F0D7FFFA21301CAC
:10045000890003F031FD5B270F2808DD0E2768288F
:1004600005DCDF27103878435B2700123F1A169B04
:10047000102B00D05B27964E60231B1B191C059385
:100480005B223B1C301C01F0F8FD61231B1B191C77
:1004900006935B223B1C301C01F0EFFD62231B1B0B
:1004A000191C08935B223B1C301C01F0E6FD7023F5
:1004B0001B1B09932A2300275B1B009386490122FB
:1004C000099B0197301C01F098FF48231B1B0A93DE
:1004D00055235B1B0093814902220A9B0197301C24
:1004E00001F08BFF0F22551B40231B1B00957C49FD
:1004F00003220197301C01F080FF169A07990DA87E
:10050000D500FFF769FE0DA804F0B3F928235B1BA3
:10051000021C00930DA90197301C039B01F06DFF95
:10052000FA210798890003F0C7FCB84208DD0E27BE
:10053000292806DCEE2778435B27C0113F1A00E02C
:100540005A27169B002B00D05B273B1C05995B228A
:10055000301C01F092FD3B1C06995B22301C01F01F
:100560008CFD3B1C08995B22301C01F086FD552256
:100570000027521B50231B1B00925A49012201974E
:10058000301C01F03AFF0F235B1B009356490222F7
:100590000A9B0197301C01F030FF2A235D1B0122CA
:1005A000099B009551490DAD0197301C01F025FFC5
:1005B0000B99281CFFF710FE281C04F05AF928217B
:1005C000B523021C1B1B00910197291C301C01F054
:1005D00014FFFA210B98890003F020FC021E322A36
:1005E00001DD6422121A424B9F56312804DC32226C
:1005F000101A1B565B4203E01B18323B1B785BB2A0
:10060000029A334E102A0AD16922D71BC821C83357
:10061000091B1B1B0097301C01F081FD04E0029BAD
:10062000002B01DC8134FF34049A0A2A05D93123D6
:100630002B706B702B23AB700CE0049A2023AB70F3
:100640000A2A03D131232B70302302E02B70049B44
:1006500030336B709E2337225B0000271B1B0092F8
:1006600001970322301C291C01F0C7FE049A2423A1
:10067000FF330A2A1CD8101C6022009200221B1B88
:10068000019203F0C1FB0606060909090D0D1111BF
:100690001100301C174905E0301C174908220EE0F4
:1006A0001649301C06220AE0301C1549092206E0D2
:1006B0006022144900921B1B0197301C072201F095
:1006C0009CFE01F071FB11B0F0BDC0469C480000DB
:1006D000E4000020056100002C6100002E61000094
:1006E000316100002A6100003561000038610000BE
:1006F000636100003A610000416100004A6100004E
:10070000516100005B61000008B5034B1868034BA2
:100710001B68984708BDC046180100203001002022
:10072000024A01231370024A13707047050000202B
:1007300004000020024B1A6805321A607047C04658
:10074000940A002008B5C02101220A4802F0CCFD1D
:10075000094B186802F060FB084BFA211A688900FF
:1007600052181A60064B00221A70064B186802F0E5
:1007700053FB08BD00A000409C0A0020940A002002
:1007800011010020980A002013B51B4B1B481A6862
:10079000C02102F0A9FC041E2CD0194B00211868BE
:1007A000184A194B009102F04BFA631EDBB2012B81
:1007B0000BD8164B1B68002B11D1154B012C01D106
:1007C0001C600CE00122524208E0042C02D10122FC
:1007D000524202E0032C02D101220E4B1A600E4B52
:1007E000012119700D4B32221868002300930C4B25
:1007F00002F026FA13BDC046940A002000A0004073
:100800008C0A002060EA0000450700001401002067
:100810002C0100202801002005000020980A00205B
:100820002508000010B5264C2378002B46D1254A18
:100830001368002B20D0244B1168186841181960E8
:100840001968103101DA202119601968202902DDA8
:100850001021494219601968102905D0196820290A
:1008600002D01B68002B05D100231360174B1868BA
:1008700002F0D2FA01232370154A1368002B1DD011
:10088000144B11681868411819601968103101DAA1
:10089000102119601968102902DD102149421960E0
:1008A0001968102902D01B68002B05D100231360A2
:1008B000064B186802F0B0FA0123237010BDC04641
:1008C000050000202801002014010020980A0020C3
:1008D0002C01002020010020F0B595B0AE4A0EACEE
:1008E0000294231C13CA13C313CA13C3AB480121B8
:1008F00000F0A6FB02200124021C0821012300F0C5
:10090000D5FD022008210022231C009400F08AFD5E
:100910000220021C0921231C00F0C8FD022009212D
:100920000022231C009400F07DFD9D4FC020022575
:100930004000402304213D500A1C3D603B503B6079
:100940000320002300F0B2FD964B1021D9672A1C2A
:1009500003200521231C00F0A9FD0320052100220E
:10096000231C009400F05EFD8F4B252000251022F3
:100970006844DA672621057009AB272229201D70FB
:1009800069441F236A446844884E13700D700AAB93
:1009900009220570291C0BA81D7003F062FF844812
:1009A000211C00F04DFB301C09A900F0A9F92D21F4
:1009B000042369440CAA0B70301C09230BA9137083
:1009C00000F0BCF97B4BC020736373691021234393
:1009D000400073613950396002F0E6F8764802F061
:1009E0008FF8764802F08CF8754F381C02F088F8C2
:1009F000744802F085F8FFF725FC0EA801F050FFBF
:100A00002A1C8221704803F04FF8C02105906E48DF
:100A100002F0F4FA431E9841C0B22B1C05992A1C1F
:100A20000490FFF729FCC021221C674802F05CFCFF
:100A3000FA223868654B0095211CD20002F000F9BB
:100A4000634B03941C70634B02941D70624B1B78C4
:100A5000002B2DD0614B00221A7001227260191CEC
:100A60000A78002A06D15E4B04201A6982431A6173
:100A700030BFF5E7822108AA09AB5348776A02F034
:100A8000E5FF6A460BAB5048C0211E3202F0E2FA85
:100A9000514B0025039C1D70AF231B01AC4202D0BB
:100AA000BB426D41EDB20024BB426441E4B2039409
:100AB000484B474C1A78D2B2002A22D0494F3B7893
:100AC000002B09D0FFF760FE474B1B68980601D446
:100AD000FFF75AFE00233B702378002B57D0434B7F
:100AE000089A1868424B09991B6800936B461E339D
:100AF0001B880195FFF73EFC314A002323701068E4
:100B00003EE02178002942D00B992270002902D0C2
:100B1000029C002C03D0374A1278002A20D00127EB
:100B2000C021002228481F7002F0DEFBC0213A1CC1
:100B3000254802F073FA204B00241868211C2E4A25
:100B40002E4B009402F07CF81C4B391C18680522CF
:100B50002B4B009402F074F81D4B1F70254B1C703A
:100B6000029C0B9A04982240531E9A41D2B22B1C2D
:100B70000599FFF781FB124B0B9C18680294002328
:100B8000FA2200930121D200104B02F059F8002004
:100B900000F020FC5AE7C046986100000072020095
:100BA00000E100E0046000400060004000200040E0
:100BB00000A202007C1F00008C0A00209C0A00207A
:100BC000900A0020980A002000A0004021070000A1
:100BD0000500002011010020040000201C0100205D
:100BE00000ED00E0100100208860004014010020AA
:100BF000200100202401002060EA000045070000D9
:100C000035070000034B9A691A62034B01221A70E0
:100C10007047C046002000401C01002037B50F4B34
:100C20000F4D1A68002A01D101222A601B68202B6F
:100C300002D101235B422B600A4B01241C700A4B3A
:100C4000211C1868002300933222084B01F0F8FFA2
:100C5000074B2A681A60074B1C7037BD140100202F
:100C60000000002005000020980A00202508000050
:100C7000280100202401002010B5094B9C691C624A
:100C8000E30501D5FFF7CAFFA30502D5054B0122F5
:100C90001A70A30602D5044B01221A7010BDC0467B
:100CA000FC600040240100201001002008B5FFF77F
:100CB000E3FF08BD08B5FFF7DFFF08BD30B585B01D
:100CC0000C4B141C18600C4B03A8196001F018FFA2
:100CD000FA20211C800003F0A1F8039D0024021CCF
:100CE0000094281C0121054B01F0AAFF201C05B02F
:100CF00030BDC04630010020180100200907000067
:100D000010B50A2343600A784B7812061B0113437F
:100D10008A78CC781343FE222404D20322400C7933
:100D20001343FE222402D201224013434A79002AAF
:100D300001D008221343036010BD000070B58C7809
:100D40000222031C4260062C3BD8201C03F05CF8F6
:100D5000040F162439393100586B2C4AFE251040F7
:100D60002B4AED01566835400543506810E05D6B35
:100D7000264A1540264A5068526813E0586B234AA9
:100D8000FE251040224AED019668354005439068E3
:100D90007F2210402A1C12E05D6B1C4A15401C4A41
:100DA0009068926852024000520E400E2A430002A0
:100DB00005E0174D586BED687F2290432A400243AF
:100DC0005A6348780A780005120702430879240418
:100DD000000222430243C8780001024388790028B8
:100DE00002D0802040040243C879002801D00420AA
:100DF00002434879002801D002200243097A0029E1
:100E000001D001210A43DA6070BDC0468080FFFF37
:100E1000B081E00F70B50B4B0B4AD96BDA635A689F
:100E20000A4A0B4C801800225D68161C8442564109
:100E300007208543281C30435860914200D0DA6374
:100E400070BDC04600000C40711B0000FFDB0BFFB3
:100E5000FF23F400104BE0225B69D2008021134095
:100E600089008B4216D007D8002B0FD08022520069
:100E700093420DD109480EE0C02189008B4203D076
:100E8000934205D1064806E0064804E0064802E021
:100E9000002000E00548704700800C40C0D8A70043
:100EA000406F400140420F00809FD500C0CF6A00D4
:100EB000034B5A6DD10702D41A6D0242FCD1704720
:100EC00000800C4008B5104A4300916AD9400B1CC1
:100ED00003210B40022B06D08B4207D0012B09D1F6
:100EE00002F085FF0FE002F089FF0CE002F06EFFD8
:100EF000400808E0936A04308000C3400020834229
:100F000001D002F077FF08BD00800C4000B5021C44
:100F10000006000F0138012303281CD802F074FFDB
:100F20000205090F0D4B9A6801E00C4B5A680F231C
:100F30000BE00B4B9A420DD1084B9A6EF7E7094B29
:100F40009A4207D1054B1A6F0323134001229A409E
:100F5000131C00E00123181C00BDC04600800C409B
:100F6000300408004005140010B5031C0006000FF3
:100F700001380C1C032859D802F046FF02132B42FB
:100F8000802212060023144202D101335208FAE7EC
:100F9000274A1F209168C31A0F2081430B43936097
:100FA00044E02448FFF736FF802212060023144253
:100FB00002D101335208FAE71D4A1F205168C31AB3
:100FC0000F2081430B43536002F000FFFFF722FF25
:100FD0002CE0194A934229D10420FFF769FF8022AF
:100FE00012060023144202D101335208FAE7104AD4
:100FF0001F20916EC31A0F2081430B43936615E0A7
:101000000E4A934212D14020FFF752FF802212066F
:101010000023144202D101335208FAE7044A1F2088
:10102000116FC31A032081430B43136710BDC046E1
:1010300000800C4000366E013004080040051400AA
:1010400070B5051C0005000F01380E1C052823D8BB
:1010500002F0DAFE031206090C0F00200F4C0DE01F
:1010600000200F4C0AE001200E4C07E010200E4C2F
:1010700004E000200D4C01E00D4C0020ED03ED0ECE
:10108000002801D0FFF714FF23680122AA409343F0
:10109000AE401D1C3543256070BDC04608800C4025
:1010A00040800C4058800C4060800C4078800C40A0
:1010B00044800C4000B50F2318400138002303285A
:1010C00040D802F0A1FE0418290207233AE01E4B83
:1010D000DA6AF0239B0113408022520193422ED002
:1010E0008022920193422CD018495B185A425341F6
:1010F0000522D31A26E0144A0321936A0B40022BDF
:1011000020D08B4213D0012B01D10B1C1AE0926A24
:101110000923D10316D410E00B4A0C23916A0B402B
:10112000082B0ED00C2B02D0042B02D107E0062393
:1011300008E0926A0923D10204D4012302E00323C8
:1011400000E00223181C00BD00800C4000F8FFFFE7
:1011500008B5F8239B03184080231B0398422ED028
:1011600011D880239B02984221D002D8002840D079
:1011700045E08023DB0298421ED0C023DB02984268
:101180003DD1002024E0A0235B03984223D005D862
:1011900090235B03984232D1012019E0C0235B0306
:1011A00098421FD0D0235B03984225D027E002F05D
:1011B000C1FD144B9A6807E002F008FE20E0002011
:1011C000FFF780FE0F4B9A6E0F231340D84017E0B5
:1011D000FFF778FE14E00120FFF774FE094B1A6F49
:1011E0000323F2E70848FFF765FF072804D0082823
:1011F00005D102F09FFD03E0FFF72CFE00E0002088
:1012000008BDC04600800C400400180010B504283A
:1012100021D802F0F9FD0C09110306000120022378
:101220000CE01020202309E04020802306E08020ED
:10123000802340009B0001E004200823064C002985
:1012400006D02062002A04D0E26A1A42FCD000E0F4
:10125000236200F0DDF810BD00800C4010B50F24B3
:101260000440012C04D0002C5ED0032C26D95BE076
:10127000881E072858D802F0C7FD0F06090C5757DB
:101280005704032000E00120032407E00220041C8F
:1012900004E00320012401E00020042401210A1CB1
:1012A000FFF7B4FF2148FFF7B5FD214B5C6200F06A
:1012B000AFF802F08BFDFFF7ADFD35E0481E0828C2
:1012C00032D802F0A1FD05070E31311531311D0074
:1012D000002313E0012100200A1CFFF797FF0223DF
:1012E0000CE00120011C021CFFF790FF012305E028
:1012F000104B042219680A431A600323002201E0FC
:10130000002301220A49022C06D18C6A0A481204E1
:1013100020400343134306E012059B001343886AF1
:10132000064A104003438B6210BDC04600366E0172
:1013300000800C4040800C40FCFFFEFFF3FFEFFFFD
:1013400070B52049204BCC6FCB67204B01201B6828
:1013500010251D400440402618401E4005433543DB
:1013600004261E403543802676001E40184A354329
:101370001562F025AD012B4080256D01AB4208D0F0
:101380008025AD01AB4209D080252D01AB4210D1A3
:1013900009E0D36A1D06FCD5032508E0D36A9D0544
:1013A000FCD5042503E0D36A1D07FCD50225084BB4
:1013B0005D62002801D102231362002C01D00023BA
:1013C000CB6770BD08800C400E580000340100202F
:1013D00000800C4008B50B4B0421DA6A0A4B1A60F6
:1013E0000A4B1A690A431A6130BF002802D0FFF77E
:1013F000A7FF05E0044B1B685A0501D402F0E6FC88
:1014000008BDC04600800C403401002000ED00E023
:10141000024BDA6A024B1A607047C04600800C40EB
:1014200034010020F7B508AC247801941B4C07293F
:101430000AD88D0067680F26AE40A840B743051C48
:10144000381C284360600BE00D1C083DAD00A76808
:101450000F26AE40A840B743051C381C2843A060A7
:101460000F4F012538688D4084466646E8430640A4
:101470008A4032433A600B4A17680740BC461F1C3B
:101480008F4063463B431360074B25621A68104048
:10149000019A8A4010431860F7BDC046FC600040C6
:1014A000086100400C61004010610040F0B5002A66
:1014B0000CD0012524248D404443002B03D01B4E27
:1014C000A419256102E01A4EA4196560242444433E
:1014D00007290CD8154D0F26641967688D00AE409A
:1014E000B743161CAE403D1C354365600DE00F4E02
:1014F000A419104EA7688D19AD000F26AE40B74352
:10150000161CAE403D1C3543A560002A0CD10124B9
:1015100024228C404243002B03D0044BD218146188
:1015200002E0034D52195460F0BDC0460060004017
:1015300010600040F8FFFF3F70B5041C151C1E1C16
:10154000002A1BD002680E4B13400360036832026E
:1015500013430360002903D10A48FFF7F9FD011C7A
:10156000094BA800081A995D694302F057FC2368EB
:101570009A0702D5002800D10120206170BDC04625
:10158000FFFCFFFF10810200B061000070B5002376
:1015900043630C4B022203630368012693434A789A
:1015A0000D1C7240B240134303600B7BAA6849686C
:1015B000041CFFF7C1FF23682A78B3431343236059
:1015C00070BDC046CFFF0100F0B5894A904200D0FF
:1015D0000AE1884B9E681F785C881979C020956A5B
:1015E000C00005420AD019715C80FD21A80500D514
:1015F000EAE0690500D4E8E0FE21E5E0082F00D923
:10160000DFE0381C02F000FC051B424F677697AB09
:10161000D300708819715C803188C40604D5062017
:10162000090A0140F02004E0FE242140850701D58D
:10163000012001430120187051625060C7E08020F2
:10164000054200D07AE040273D4201D101207FE0F1
:101650001763778802256648AC46FD0606D51971E2
:101660006146197031785C804162B0E065462F4276
:1016700073D05C8019710724C9001C7076183189F9
:10168000012900D0A3E008214160A0E080200542AC
:1016900054D1402702203D425AD075881763032752
:1016A00005429BD159E05C80748819713188E0064D
:1016B00005D50620090A0140F020014301E0FE2083
:1016C00001400420044201D001242143187001206C
:1016D000506051627BE0802005422FD140270420DA
:1016E0003D4235D075881763054236D019715C804C
:1016F00007216BE0C80030180589A54213D874880B
:1017000001310420C9B2204002D00024032765E73C
:1017100001252C4002D05880197138E0012900D8E9
:101720005CE75C80F8E719714168601C095D5880CE
:10173000516206214AE08020054205D01971FF213F
:101740005C801063597022E04020054204D10620DD
:1017500018705C8019713AE0106305273EE7072096
:1017600018705C801971AC0631D5C90076183089C3
:101770005C88D569844203D27168661C5E800D5511
:101780005988814208D3012801D1082151600821DC
:101790001970022151601AE004245460012816D007
:1017A0000138814213D11249082048600FE01971B5
:1017B00080210820490018705C800D4207D0116319
:1017C00003E019715C80FB215970092119701978A7
:1017D0000120092909D10021516301229A56824230
:1017E00000D15970587800E0FC2040B2F0BDC046EE
:1017F00000A000403801002010B5174B984201D0DE
:10180000FC2026E09A68D00701D520225A604A8839
:10181000900702D508890028F2D0500702D50A8A1D
:10182000002AEDD00D4A0020012410711070547070
:1018300050809160C0225A609A6A910601D5064A8A
:10184000D269074A04481A63FC22D2005A63FFF7A0
:10185000BBFE40B210BDC04600A0004038010020D1
:10186000CFFF0100002804D0012805D1034BD86820
:1018700003E0024B986800E0002070470000084039
:10188000002803D0012803D1024B00E0024B19606D
:101890007047C0460C00084008000840034B012177
:1018A0001A688A43104318607047C0460000084019
:1018B000034B002802D001221A6200E01862704730
:1018C0000000084042780378002A01D00222134326
:1018D0008278002A01D004221343014A1360704722
:1018E0000000084008B50020FFF7D8FF0120FFF7EF
:1018F000D5FF08BD38B5051C141C081E02D10748C9
:10190000FFF726FC631E40001818211C02F086FA1F
:10191000034B800140381840686138BD10810200D7
:1019200000FF1F000A4B0B4AC360002303604260A4
:10193000094A83604361C3648264084A43659042F4
:1019400000D103658365904201D10023C3657047D0
:10195000AA0E000005100000F91F000000C400409E
:1019600038B50D1C041CFFF7DDFF2B8A0122134341
:10197000AA7B2168501E824192020B4313432360CD
:10198000AB7C21685A1E93412A7D1B01501E824167
:1019900052070B43134323602A7B80235B011343CD
:1019A0006360201C6968AA68FFF7A4FF6B7B002BAB
:1019B00001D01023E3602B78E36038BD03695A0639
:1019C000FCD54163704703695A06FCD5C163704773
:1019D000044B1A780123002A02D0034B0360002332
:1019E000181C70478401002078010020F0B5051C08
:1019F0000C4804780120002C13D00B4CAE1827881B
:101A00000420BE420DDC6788CE18BE4209DC0520EA
:101A1000002A06D0002B04D0A580E18022816381BA
:101A20000020F0BD8401002078010020F0B587B0CF
:101A30000093554B03921A780123002A00D19FE0AE
:101A4000524A1568002D00D19AE0514A009E5489EF
:101A50001389641A5C430323241AA64200D98FE039
:101A60004C4B5C7C002C00D089E09B680294DB0826
:101A70000493D388C918049B89B24B43EB18059192
:101A80000193009D002D78D0414B009E1D892D1A99
:101A9000B54200D9351C9F88009EC719761BBFB27E
:101AA000072300961F4203D11C4201D19D422FD82B
:101AB000EE19231C3A1BD21892B2B24246D2039DB1
:101AC000D910685C01211841084032490D7CD108C9
:101AD000002D02D1002804D10EE0012D0CD10028E8
:101AE0000AD10720019D0240012069189040021C84
:101AF000087802430A7009E00720019D0240012096
:101B000069189040021C0878904308700133D1E7AF
:101B1000019E0398FF08F719E110EE084118321CE6
:101B2000381C02F095FEF300ED1AE318002D0DD0DD
:101B30000122039CBE19D810AA403178205C013ADA
:101B4000D2B291430240114331705B19029D059E50
:101B50001F24A8194111104A204001248900844003
:101B60000135201C02958C58019D049E2043AD191F
:101B70008850019500201C1C83E72B1C00E00A23E1
:101B8000181C07B0F0BDC0468401002048010020A9
:101B9000780100204C010020A00A0020F0B587B099
:101BA000021C504804780120002C00D198E04E4CD3
:101BB0002468002C00D193E04C48457C002D00D0D7
:101BC0008DE08568007CED080395012801D058421E
:101BD0004341581E8341DBB205935B42DBB2029363
:101BE000434B039EDB880025C91889B24E430491FC
:101BF000A61901950D9D002D6FD03D4B0D9D1C89A3
:101C0000A41AAC4200D92C1C0D9D2D1B0D959D884E
:101C10005519ADB2072C21D80598641900280ED0AB
:101C2000A54245D207222A40EB080121F318914032
:101C30000A1C197801350A431A70ADB2F0E7A542C3
:101C400036D207212940EB080122F3188A40111CE3
:101C50001A7801358A431A70ADB2F0E707232B409A
:101C6000ED087519002B0CD001229A402878013A12
:101C70000299D2B2914302400A43083B2A70E41809
:101C80000135E70807D0281C02993A1C02F0E9FD4B
:101C9000FB00E41AED19002C0AD00123A3401C1C00
:101CA000013C2B780299E4B2A3430C401C432C70F6
:101CB000019D04980F4B29184A111F2092000140E2
:101CC0000120D5588840011C2943019DD150013580
:101CD0000195039D002276198CE7281C00E00A205C
:101CE00007B0F0BD84010020480100204C01002015
:101CF00078010020A00A002070B50A4C051C0A4893
:101D0000231CC26841688669B04722680B20002AFC
:101D100006D02A600548FF21102202F0A2FD002013
:101D200070BDC046480100204C010020A00A0020E0
:101D3000F7B5194E0020337883422BD100F0AEFB6B
:101D4000002827D1154D291C00F0BEFB002821D109
:101D5000134F381CFFF7D0FF041E1BD13B680B202C
:101D6000002B17D0EA68696890B28FB2021C7A43E0
:101D70000C4B211C588058811F809C80DC801F8167
:101D800001233370201C01920094221C231CFFF7B6
:101D900005FF201CFEBDC046840100204C01002030
:101DA0004801002078010020F0B585B0234B0024C5
:101DB0009B680126DB080293214B271C1D681F48E6
:101DC000E319C2680393934220D201222A4001D032
:101DD000013412E0002C0FD0029B1A497B430968A2
:101DE000C918436800970194046AA047002823D1CA
:101DF000039F041C013700E00137E3196D08DA0680
:101E0000DDD10F4BB200D5580136D8E7002C06D1F2
:101E10000B480021102202F024FD00200CE0029B60
:101E2000084A7B4311680022C9184368009701944F
:101E3000046AA0470028EBD005B0F0BD4C0100209B
:101E4000A00A002048010020F7B5051C0C1C002842
:101E50002ED000292CD00F688A680420974228DAF7
:101E6000E36849680193994223DA2E68B088844672
:101E7000032067451DDBF38899421ADB33899342BF
:101E800017DD7689019B9E4213DD89B2B8B2CB186B
:101E900082180132013392B29BB2FFF7A7FD21688D
:101EA0006268A368E468E960AC612A616B6100E084
:101EB0000520FEBD30B587B00524051E1CD00023CB
:101EC00043600F4B836001A8FFF782FD041E13D10E
:101ED000019B02901A882B605B880390013A013BBA
:101EE000281C02A904920593FFF7AEFF041E03D13C
:101EF000281C044900F0C2FA201C07B030BDC046BF
:101F0000FFFFFF00B461000008B5031C0520002B93
:101F100006D01B6800201A88011C5B88FFF766FD4D
:101F200008BD37B50521041E13D04568FFF7ECFF47
:101F3000011E0ED120682A0C2B0AEDB200954489AF
:101F40000089D2B26043DBB20190081CFFF726FE85
:101F5000011C081C3EBD10B5040C0C70010A117068
:101F6000187010BDF7B50524051C0F1C161C0028A1
:101F700012D00C3000F098F9012400280CD0AD6884
:101F8000B8B22A0C2B0AEDB20194B1B2D2B2DBB2D4
:101F90000095FFF703FE041C201CFEBDF7B50524C9
:101FA0000F1C161C1D1C002811D00C3000F07CF9F1
:101FB000012400280BD02A0C2B0AEDB20194B8B2F0
:101FC000B1B2D2B2DBB20095FFF7E8FD041C201CD1
:101FD000FEBD10B5031CDC680120A14200DB00201F
:101FE0005C69C0B2A14201DD0221084399698A42BD
:101FF00001DD042108431B699A4201DA08231843D2
:1020000010BDF0B585B0171C1C1C002831D002692A
:10201000012397422EDB826997422BDCA14202DD2D
:102020000B1C211C1C1C46690123B14222DCC26826
:1020300094421FDB0D1E954200DA151C69466A4664
:102040006B4680680D310E320F33FFF784FFB9B253
:102050006F46FF7B6B465A7BA8B29B7B0097B442CE
:1020600000DD341C641B01340194FFF797FD031C51
:1020700000E00523181C05B0F0BDF0B587B0051EC3
:1020800049D0C0680124814246DB6869814243DC53
:102090009A4202DD101C1A1C031CA869012482420A
:1020A0003ADC2E69B34237DBB24200DA321C83429B
:1020B00000DD031C9B1A0133039388B29BB291B2DB
:1020C0000122FFF793FC041E26D16F466E4615379A
:1020D00016366B46A868391C321C1733FFF73BFFD6
:1020E0006846C17D3A78337800910399201C0191AC
:1020F000211CFFF753FD041E0ED16B69A889298AA4
:10210000C218AB690132CB18013392B29BB2FFF710
:102110006DFC041C00E00524201C07B0F0BDF0B5E8
:1021200087B003900D1C141C01930C9F002869D0EC
:10213000994203D13B1CFFF7A0FFB3E00398BC42D8
:1021400003D1019BFFF75DFFACE0FFF742FF019970
:1021500004903A1C0398FFF73CFF00260590029676
:10216000059B04990B43DBB2002B4DD0059A0B1C49
:102170001340DBB20120002B00D093E0131C002998
:1021800000D00B1C034209D0039B019ADB68029329
:1021900002993B1B481B5843511B09E099070BD57B
:1021A000039A3B1B5269501B5843019B0292591BD7
:1021B00001F082FE261811E0590702D5039A9669AC
:1021C00003E01A070AD5039B1E690199301B4B1BBC
:1021D0005843391B01F070FE28180290049A0398A6
:1021E0000299002A06D0321CFFF7F3FE341C04903B
:1021F000029DB5E7321CFFF7ECFE029B0590371CF1
:102200000193ADE705204DE03B1BA74200DCE31B3B
:1022100001996A1AA94200DD4A1B934202DC00229E
:10222000049207E0019B01971F1C2B1C251C1C1C02
:10223000012304930199A94205DA231C3C1C1F1CAD
:102240002B1C01930D1C019AE31B521B0292059358
:10225000A74201DD391B0591029AD60FB6187610F8
:102260007642A74201DB012714E001277F4211E0FB
:10227000049B0398002B11D0211C2A1CFFF772FE2F
:1022800000280FD105997618002E02DD029AE41974
:10229000B61A0135019B9D42EADD02E0291C221C91
:1022A000ECE7002007B0F0BD10B5031E10D01C688D
:1022B0000020A1420CDB9C68A14209DC59688A42DB
:1022C00006DBDB68D00FD91793424841C0B2FFE765
:1022D00010BDF0B587B004930CAB1B78041C0392BF
:1022E000059300D186E00D1C203DEBB202205E2B51
:1022F00000D980E0231C28331B78ADB2834209D17A
:102300003A2906D00B25202904D00D1C303DADB252
:1023100000E00A25238C0220AB426CDDE069002737
:1023200002900197A31DDB7F019883425FD9E31CD4
:10233000DB7F012B05D0022B08D102986B001B5AC2
:1023400007E0029A525D0092002619E0029AAB0063
:10235000D35A0093F8E7009BDB0716D50398049B3C
:10236000811901981A18201CFFF7FCFD012842D89A
:1023700043424341FF180098013640080090B6B22E
:10238000631DDB7FB342E6D811E0059A002AF2D044
:10239000039B04989919019BC218201C6368FFF7DE
:1023A000FDFDE3E7059A002A09D10136B6B2631DA7
:1023B000DA7F0333DB7FD3189E42F3DB0EE0039B0F
:1023C00004989919019BC218201C6368FFF7E6FD69
:1023D000012810D843424341FF18E6E7231DDB7F65
:1023E000ED18019BADB201339BB201939AE778429D
:1023F000784100E0052007B0F0BDF0B587B0039349
:102400000CAB041C01CB1B780593002C33D00029A6
:1024100031D0231C28331B780220002B2CD08A18A3
:10242000039E0D1C049200270498854220D0297831
:102430000A2909D1A31DDB7F0C99039ECA18E31D4D
:10244000DB7FD3180C9311E0059B201C0093321CFA
:102450000C9BFFF73EFF01280ED843424341FF1873
:10246000631DDA7F0333DB7FD318F6180135DBE712
:102470007842784100E0052007B0F0BD08B500289B
:102480000AD01C301022002902D102F0EAF903E040
:1024900002F0DEF9002000E0052008BD10B5084B71
:1024A0001C78002C01D0002009E001221A70054B95
:1024B000E358002BF7D0984704340028F7D010BD1C
:1024C000B80100200800002008B50A4A0B1C127849
:1024D000002A0AD000280ADC2C2250430649091899
:1024E000181C02F0B5F9002002E0044800E004489E
:1024F00008BDC046B80100208C01002005001180F5
:102500000200118008B50B4B011C1B78002B0DD06D
:10251000094A1368002B0BDC581C10602C22534313
:102520000648C01802F094F9002002E0044800E0D8
:10253000044808BDB8010020880100208C0100205B
:10254000050011800100118070B5802910D1094962
:10255000094D0C68802612013601A218AD19002021
:10256000AA4202D91860054803E01C600A6000E036
:10257000034870BD10000020B90100200100118047
:1025800002001180004870470400118008B500F077
:1025900031F900F0EDF8002008BD70B500240E1CE4
:1025A0001D1C20013018AC4205D00021102202F081
:1025B00058F90134F5E7002070BDF7B504200F1C71
:1025C0000B2100F043F9062000F019F9089E6D4632
:1025D0000136B6B20635012233021343281C02210C
:1025E0002B8000F0E7F80024099B200138189C425A
:1025F00015D0102100F0DEF8099B013B9C4202D16E
:1026000001235B4204E0731C1B191B02FF221343CE
:10261000281C02212B80013400F0CCF8E4E70220D2
:1026200000F0EDF80B21042000F01EF90020FEBDA3
:1026300008B50A21042000F025F9002008BD08B5DE
:102640000821002000F002F90A21002000F0FEF825
:1026500008BD10B50C1E02D0FFF7F1FF07E0081C03
:102660000A2100F001F9201C082100F0FDF80020EB
:1026700010BD000030B58DB000F0BCF800F078F867
:1026800000F0CCF80022131C0F21022000F0D0F83B
:102690000022131C0721032000F0CAF80022131C9B
:1026A0000B21042000F0C4F800200821021C031CA8
:1026B00000F0BEF800200A21021C031C00F0B8F84C
:1026C0000020011C021C031C00F0B2F80022131CA5
:1026D0000A21042000F0ACF81D480021402200F03F
:1026E00093F8041E30D11B4A01A801920122027402
:1026F00080224260C2608260174A44744261174A75
:102700008261174AC261174A0262174A4262174A37
:102710008262FFF7F7FE041E16D1FFF790FF0B2130
:10272000042000F093F8062000F069F868460221C2
:1027300002300425058000F03DF8022000F05FF82B
:10274000281C0B2100F090F8201C0DB030BDC046B5
:1027500031260000E46400005326000049250000F3
:1027600085250000BB2500009B2500008D2500006D
:1027700030B587B00A4A6B4623CA23C323CA23C392
:10278000084D09480121FEF75BFC084B281C6946EF
:102790000293FFF7E5F8064B00206B6507B030BDEC
:1027A000FC64000000C4004000320200E067350015
:1027B0000A03000038B5041C0D1C002D11D0012D9A
:1027C00001D0E20706D521780948FFF7F7F8013D67
:1027D0000134F2E721880648FFF7F5F8023D02349C
:1027E000EBE7034B1B699A06FBD5002038BDC046BA
:1027F00000C4004008B501F079F9002008BD08B513
:1028000001F054FA002008BD08B5FEF757FA002879
:1028100000D0014808BDC0460200138008B5034837
:102820000121FEF70DFC002008BDC0460072020029
:1028300010B5141E05D1C0B20422FEF737FE201CCD
:1028400000E0014810BDC0460100138001238B4009
:10285000191CC0B224235843024BC0180161002048
:102860007047C0460060004001238B40191CC0B275
:1028700024235843024BC018416000207047C046D3
:102880001060004001238B40191CC0B22423584320
:10289000024BC018816100207047C04600600040B4
:1028A0007FB50121041C1E48FEF7CAFB1D4B2168A1
:1028B000994233D11C480121FEF7C2FB207961798E
:1028C0000A220123FEF7F2FD0A22A079E179012311
:1028D000FEF7ECFD257909226079012324211E1CD5
:1028E00069438640301C114E013A891908606079AD
:1028F0001E1C86404E60002AEED1227A032112026D
:102900000A43206869460B704B70E3688263019349
:102910002269237D02920B73FEF738FE7FBDC0460D
:102920001081020000A0004000B2020010600040D0
:1029300038B5051CFEF760FF054C40B2012806D1F2
:10294000013C002C03D0281CFEF73EFEF5E738BD05
:10295000E193040072B6044B1A68511C01D0013295
:102960001A6018687047C04644010020054B0020DB
:102970001A68824204D0501E1860002800D162B646
:102980007047C04644010020F7B525490190081C56
:1029900014300B7F002294464A7793423AD00A685B
:1029A0004B68019C6546634501D1A24204D9121BC4
:1029B000AB410A604B602DE0CE7F002E01D10E7737
:1029C00023E08E68CF6892197B41121BAB410A60ED
:1029D0004B60031F1B680268002B06DD9B18036019
:1029E000F32B12D90122002306E0D31A0360F32B44
:1029F0000BD901225242D3170E684F6892197B41BE
:102A00000A604B600368F43B03608F69002F01D0BC
:102A100001234B77034A283128309142B9D1F7BDC1
:102A2000C0090020600A002010B500242823634359
:102A3000064AD3185A7F002A03D0196A201C9B69C2
:102A400098470134042CF1D110BDC046C0090020C4
:102A500082B0064B596809025A680192019A120223
:102A6000521A120A8242F7D302B07047000008409F
:102A7000F8B51D4B01241E1C6442A036221C197F90
:102A8000002908D059681D688A4202D803D1AC4297
:102A900001D92C1C0A1C2833B342F0D1134E002359
:102AA0003370631C01D1531C1DD0002A02D1104B7E
:102AB0009C4200D90E4C0F4B1A780F4B002A03D1C1
:102AC0000202120A1A6000E018600C4D0419022775
:102AD0002102AF61090A0020FEF7D2FE0123337004
:102AE000EB691F43EF61F8BDC0090020B909002060
:102AF0009BFFFF00BB090020640A00200000084083
:102B000038B5051CFFF726FF002328225A43094940
:102B10008A18947F002C01D00133F6E7002D03D0F2
:102B2000012191772B6000E0034CFFF71FFF201C71
:102B300038BDC046C0090020041000F000000000AD
:102B400038B5430CC20311490F4880185941104A47
:102B5000104B01F013FA041C0D1C002D07D0104877
:102B6000FFF776FF0C4A0D4BA4185D41F5E70C4BBF
:102B70009C42F4D8002C02D0201CFFF769FF0020F3
:102B800038BDC046C046C046A00F0000000000008F
:102B9000401F000000000000650000FFFFFFFFFF76
:102BA0009BFFFF00C046C04638B51A4B1C78002C6E
:102BB0002ED101251848291C1D70FEF741FA17482F
:102BC0000221FEF74BFB16480821FEF7CDF9291C20
:102BD0001348FEF735FA1348FEF774FE124B07222E
:102BE000D9699143D9619A61FEF77CFE0F4B80222F
:102BF000C0215201A9405A500D481A60211CA02240
:102C000001F02FFE0B4B1C700B4B1C700B4B1C6010
:102C1000002038BDBA09002000230400020006008D
:102C200030040800146500000000084000E100E0E6
:102C3000C0090020BB090020B9090020600A00205B
:102C4000F0B585B001900391151C1F1C032800D915
:102C5000C2E0FFF77FFE019928244C43644B1C1906
:102C6000A37F002B03D1FFF781FE6248B5E0002D62
:102C700008D1002F02D001980A99B847FFF776FED5
:102C80000020AAE05C4E6B0C7268564954480292D0
:102C9000EA0380185941A761534A544B01F06EF979
:102CA000039BA060E160012B08D1FA239B005D43E8
:102CB000F42358437A23281A20616361019C282158
:102CC00061434B480122002341188C68CD681219DA
:102CD0006B410A604B60494B039D0A9C1B780122A3
:102CE0000A77CD770C62071C002BC7D1444C2368B0
:102CF000013302D023689B182360424B1A78002AC4
:102D000020D1029D28202A02019D3F4B6843120AD0
:102D10001A603F180223B3610ACF002B02D13B4B4C
:102D2000994200D93949029D002069180902090A0F
:102D3000FEF7A6FDF36902221343324DF36101232E
:102D40002B7041E02368012B3ED1019D28226A436C
:102D50000023BA1813770393F369022293432A4D91
:102D6000F3612A680299881A00022949000A431867
:102D70005A1E93415B421840FFF706FEFFF754FED0
:102D8000039A002A05D1019928234B430122FB18FD
:102D90001A77039A029801320392FFF769FE73686B
:102DA000296802935B1A1B021B0A00200093FEF79E
:102DB00059FD2B68134DC01A2B780002000A002B16
:102DC00002D0009D8542C7D82368002B00D155E76B
:102DD0002368013B236051E70E4805B0F0BDC046B3
:102DE000A00F000000000000401F000000000000D5
:102DF000C0090020031000F000000840BB090020BB
:102E0000600A0020B9090020640A00209BFFFF002F
:102E1000010000FF021000F010B5041E032C13D8AF
:102E2000FFF798FD28235C43084B1B1918339A7948
:102E3000002A03D1FFF79AFD054806E000241C7123
:102E4000FFF794FD201C00E0024810BDC0090020DF
:102E5000031000F0021000F0F8B5194DFFF77AFDED
:102E60002B699A0728D5174B01226C681A70EB69F9
:102E700002229343144EEB613368E01A0002000A09
:102E8000FFF782FDFFF7D0FD201CFFF7F1FD6C6816
:102E900032680020A71AFEF7E5FC33683F02C01A2B
:102EA0000A4B00021B783F0A000A002B01D0874220
:102EB000DDD8044A00231370FFF758FDF8BDC04663
:102EC00000000840BB090020640A0020B909002066
:102ED00030B587B001AC1D1C042363806B461A70AB
:102EE00000AB21800293211C0123238104952382BE
:102EF000FFF71EFD002801D0FF232B7007B030BD67
:102F000010B588B003AC21800121618002A94B700B
:102F10000223238101AB0A7004910693211C002334
:102F20002382FFF705FD08B010BD70B58AB005AC6F
:102F300021800121618002A90A7000229A4206DAEA
:102F40000E9E0132B518013D2D788D54F6E7013300
:102F5000238101AB6160E360211C00232382FFF722
:102F6000E7FC0AB070BD10B586B001AC2180042129
:102F7000618069460A70089900AA029204910122B0
:102F8000211C22812382FFF7D3FC06B010BD10B5AF
:102F9000131C02680C1C0179101C221CFFF7B0FFE7
:102FA00000B210BD13B56C46031C07340A1C006840
:102FB0001979231CFFF78CFF207816BD37B5141C38
:102FC00002680D1C01790093101C231C2A1CFFF7BA
:102FD000ACFF00B23EBD37B5141C02680D1C017970
:102FE0000093101C231C2A1CFFF7BDFF00B23EBD3E
:102FF00008B50A20FFF7A4FD08BD000008B5064B80
:10300000197118600021181CFFF7CCFFC0B24738B7
:103010004342584108BDC046780A002008B5031C49
:103020000448017103600321002A00D00122FFF748
:10303000AEFF08BD780A002010B5054B141C1971AD
:1030400018600321181CFFF7ADFF2060002010BDA1
:10305000780A0020F7B5234C1D1C00232B60161C9A
:1030600001AA21712060FFF7E7FF019B002B15D01B
:103070002C21201CFFF796FF2D21071C201CFFF799
:1030800091FF00020743381C323080B2642100F007
:10309000C5FE019B3080002B1CD109E0201C00F0F4
:1030A000BBFA201C2121FFF77DFFC307F9D5DFE71D
:1030B0002621201CFFF776FF2721061C201CFFF786
:1030C00071FF000206432823B6B2FF339E4201D9A6
:1030D00001232B60201C2121FF22FFF758FF002035
:1030E000FEBDC046780A0020F0B587B0794C161CAA
:1030F000217120602621201CFFF754FF2721071C87
:10310000201CFFF74FFF28210502201CFFF74AFF74
:103110002F43BDB22921071C201CFFF743FF0002EB
:103120000743BFB2201C2A210297FFF73BFF2B2148
:10313000071C201CFFF736FF000207432121201C3B
:10314000FFF730FF2121C2B2201CFFF720FF029CB5
:103150006846BFB205824482878200235A0004A9D0
:10316000885A89215C4A4900884207D9D15C0029E4
:103170000CD10121D1549A00584906E0D15C0129B3
:1031800004D10021D15456499A0056500133032BE3
:10319000E4D189235B0000209D4200D997E0029C86
:1031A0009C4200D993E09F4200D990E04B494C4BA0
:1031B0000D68854201D1002082E04C68002CFAD0D5
:1031C00088680028F7D01E68B446002EF3D05F68E8
:1031D000002FF0D09E68002EEDD0FC221206944500
:1031E00009D8974207D8964205D8954203D8944209
:1031F00001D890420ED93B4A944462461A60394A3B
:10320000BF18B618AD18A41880185F609E600D60D6
:103210004C6088600C681D685E68281B42081219A3
:103220004C689F68361B750802968E682D19BF1B67
:103230007C08A4190397661BA54200D92E1BAF1A60
:10324000BC46AA4201D9571BBC46A71A0197A24205
:1032500001D9171B01970A2805D802980A2802D815
:10326000039F0A2FA7D9AA4202D20120B44527D82A
:10327000A24203D8019F0120B74221D8AA4202D21C
:103280000220B4451CD8A24203D9019F0220B742B4
:1032900016D8AA4208D2AC4206D20198071C67444D
:1032A0007F080320BE420BD8A24284D2A54282D21C
:1032B000019A171C67447F08BE4200D87BE70420B0
:1032C00000221A600A605A604A609A608A6007B0F9
:1032D000F0BDC046780A0020740A0020680A002069
:1032E000800A0020FFFFFF1F70B586B0374C161C08
:1032F0002060201C217100F0E7F90F21051CBB2282
:10330000201CFFF744FE102145190B22201CFFF75B
:103310003EFEADB22D1869460022201C00F020FAB6
:1033200000216A46201C00F01DFB01218722201C81
:1033300000F07CF9ADB22D1804211D22201CFFF7EE
:1033400026FEADB22D180C212422201C00F06EF9AF
:10335000ADB22D1807210022201C00F067F9ADB294
:103360002D1808210022201C00F060F9ADB22D18A4
:1033700009210022201C00F059F9ADB22D181F219F
:103380002022201C00F052F9ADB22D181221201C71
:10339000202200F04BF9ADB22D18ADB2002E11D1A4
:1033A00009210122201CFFF7F2FD0821061C402202
:1033B000201CFFF7ECFD3618201C00F032F9AD1987
:1033C000ADB22D18ADB228B206B070BD780A00209B
:1033D0002239223AC9B2D2B2002B05D1415C835CBA
:1033E00009011B09CB1805E0435C825C1B029B189A
:1033F0001B051B0D084A93420AD0002B08D0DAB2F5
:1034000080201B0540001B0F10430333984001E050
:10341000012040427047C046FF0F000003680029AA
:1034200002DD8B40036002E04942CB4003607047FD
:10343000437B007B1B02C3189BB21AB2D11C05D080
:10344000D11C04DB0020002A09DB00E0012304205A
:103450004042C01A80B203B2012B00DD014800B225
:103460007047C046FFFF000010B5041C201C30212F
:10347000FFF798FD43B2012B03D0002BF6DA9BB285
:1034800000E0002318B210BD70B50E1C2021041CF2
:10349000FFF788FD051E2EDB201CFFF7E5FFC0B2FD
:1034A000002816D1002E0CD0201C2021FFF77AFD19
:1034B0002AB243B298B2934203D0002B1BDB051C07
:1034C000EAE7201C1821321CFFF761FDC0B200287A
:1034D00002D040B280B20EE0002E01D100200AE0FE
:1034E000201C2021FFF75EFD2BB240B29842F5D19F
:1034F0000028F5DA281C00B270BDF8B5041E18D0FB
:1035000003680025AB4215D04B1C05D0012911D111
:10351000802636060F1C01E00126FF2700252368C0
:10352000334207D1013579B2201CEDB2FFF776FFA7
:10353000F5E7051C68B2F8BD10B50121041CFFF7C2
:10354000DCFF23680B4AD90BC903914205D18023C4
:103550001B0601382360C0B205E0802212029B18CE
:103560001B0C1B042360404241B2201CFFF756FF96
:1035700010BDC0460080FFFF73B5041E26D0006852
:10358000431C25D06368013B03331FD8251D201C35
:10359000FFF7D2FF281CFFF7CFFF0121201CFFF708
:1035A000ACFF0121061C4942281CFFF7A6FFA18899
:1035B000051C206800F032FC75191421491B01908C
:1035C00049B201A8FFF72AFF019801E0012040421B
:1035D00076BDF7B50125061D041C6D42FFF7ACFF53
:1035E000301CFFF7A9FF291C201CFFF786FF291CB0
:1035F000071C301CFFF781FF0CCC534339181439DA
:1036000001A849B20193FFF709FF0198FEBD08B573
:103610000021FFF739FF08BD08B50721FFF734FF88
:1036200008BD08B50F21FFF72FFF08BDF7B5041C33
:103630000E1C171CFFF718FF002819D12021201C91
:10364000FFF7B0FC1F22164001AB051C603E201C9A
:10365000172102221F705E70FFF7B0FC002807D10F
:10366000201C2021FFF79EFC00B2A842F8D00020C9
:1036700000B2FEBD10B5041C201C3021FFF792FCE7
:10368000C0B20128F8D1201C2021FFF78BFCC0B26A
:10369000002805D0201C18210022FFF778FCF2E753
:1036A000201C0B21FFF7F0FE201C2021FFF77AFCE5
:1036B000C0B20028F8D0201C2021FFF773FCC0B254
:1036C0000128E0D1002010BD38B5041CFFF790FCA4
:1036D000FFF78EFCFFF78CFC201C08210022FFF76F
:1036E00056FC09210022051C201CFFF750FC2D1858
:1036F000201CFFF7BFFF08212D180022201CFFF718
:1037000046FC04212D180022201CFFF740FC052157
:103710002D180022201CFFF73AFC06212D1800224C
:10372000201CFFF734FC03212D180022201CFFF77A
:103730002EFC21212D18FF22201CFFF728FC182128
:1037400001222D18201CFFF722FC2D18FFF750FC3A
:10375000201C07211722FFF71AFC281800B238BDD9
:1037600070B586B0041C0D1C002861D000295FD004
:10377000012A0DD102AE22210C22331CFFF72BFCB3
:10378000002868D1335C002B54D101300C28F9D1CA
:10379000201CFFF73CFF00285DD1201C2021FFF7F3
:1037A00001FCC0B20028F3D1201C18211222FFF71F
:1037B000EEFB061C201CFFF757FE002E4BD1201CF1
:1037C0002021FFF7EFFBC0B2802804D1201CFFF7B7
:1037D0001EFF5E482FE05E4B18423CD10128EED11F
:1037E000201C22210C2202ABFFF7F5FB002832D16E
:1037F000201CFFF70CFF00282DD1201C2021FFF7F3
:10380000D1FBC0B20028F3D1201C18211122FFF7F0
:10381000BEFB061C201CFFF727FE002E1BD1201C20
:103820002621022205ABFFF7D6FB061E15D012E0BB
:10383000484800E04848E822120480235B03AA605D
:10384000C0222B606B60D2032B610023EA606B61A6
:1038500000B206B070BD4148EDE702A8FFF7E8FDF1
:103860003F4C400120188069331C00902B2102A896
:103870002C22FFF7ADFD01906846FFF77DFE431C4B
:1038800001D180204003286102A8FFF7D1FD40014B
:103890002018006900230090282102A82922FFF7A0
:1038A00097FD01906846FFF767FE431C01D1802019
:1038B0004003286002A8FFF7BBFD400120184068C4
:1038C00001230090222102A82522FFF781FD01900B
:1038D0006846FFF751FE431C01D180204003686019
:1038E00022212522012302A8FFF772FD0023009068
:1038F000232102A82222FFF76BFD01906846FFF703
:103900003BFE431C01D1E8200004A86002A8FFF799
:103910008FFD400124181C3429212A2201236C61C7
:1039200002A8FFF755FD00230090232102A82222C0
:10393000FFF74EFD01906846FFF71EFE431C01D1C4
:10394000C020C003E860002082E7C046FDFF000001
:10395000F0FF0000FCFF0000FFFF0000FEFF000082
:1039600014000020F0B585B0071C151C546900290F
:1039700003D1002C02D122483EE00C1C381C00214F
:10398000FFF710FB3238C0B21528F4D8012383406A
:10399000181C1C4B1842EED02B68002B01D1802341
:1039A0005B036E68002E01D1802676036278217851
:1039B00012028A1802A802920393FFF70AFEFF235D
:1039C00001AD1B0228701840000A6870E378A278E5
:1039D0001B02D31802A802930396FFF7FAFDFF23F8
:1039E0001B02A8701840000AE8701321381C04223A
:1039F0002B1CFFF7E3FAC0B200B205B0F0BDC04621
:103A0000FFFF000001003800F0B589B003AC171CBF
:103A10000422628001AA2180137002AD01230226D4
:103A2000211C0492238106952682FEF781FF00283F
:103A300002D000233B6007E06B78032293432A788F
:103A4000301C12029B183B6009B0F0BDF8B51C1C7D
:103A5000E523071C0E1C151CFFF7D6FF022802D019
:103A60000120404216E02A680B4B381C53430B4A96
:103A70005B0B9B182B60311C221CE023FFF7C4FF5B
:103A80000228EDD12268064B00205343054A5B1300
:103A90009B182360F8BDC046093D000090E8FFFF79
:103AA000CD550000FE48FFFF30B589B003AB141CB4
:103AB000042219805A806946FC220A70C9224A7081
:103AC00000AA049202221A8108221A82191C01AD4E
:103AD0000695FEF72DFF0023984204D19C4201D0A9
:103AE0002B7823700123181C09B030BDF0B58BB0C2
:103AF000654C09A86549032200F0AAFE236C00204A
:103B00000190590705D462480121FDF799FA012275
:103B100001926048FDF7CEFAE26A4023171C0321A8
:103B200006905C481F40FDF799FB5B48FDF7EEF9F6
:103B30008021079049005848FDF716FAA36D002030
:103B400001240290234204D15348211CFDF778FA46
:103B5000029472B6514B1A68511C01D001321A609E
:103B60004F4C01262568354012D02268A368E068D2
:103B70000493002303920590E5692360E361072322
:103B8000A3618021C023474A4901B340D15003E0DB
:103B90000595049503952E1C002309A88370FDF755
:103BA00091FE8022404B52011A603F4B1A6852002E
:103BB0001A600BD0616862689142FCD0384A526842
:103BC0001B68013BFDD863689342EED0364B1A6800
:103BD00052081A601B680922013A002A17D05B08B4
:103BE00015D03149086818430860606884466068E9
:103BF0008445FCD02A48406809680139FDD86168CD
:103C00008142E9D02849086898430860E4E7234ADC
:103C10001368002B04D0013B1360002B00D162B667
:103C2000002E11D007991C48FDF79EF90120FDF7E1
:103C30003FFE0499059A039BA1600020E260236087
:103C4000E561FDF735FE02E0301CFDF727FE029826
:103C5000002803D010480021FDF7F2F90699032946
:103C600002D00C48FDF7FAFA002F04D10120391CCC
:103C70003A1CFDF7CBFA019A002A03D00448002130
:103C8000FDF7DEF90BB0F0BD00800C4017650000B9
:103C90000023040002000600300408004401002054
:103CA0000000084000E100E0540000200849031C27
:103CB000002B0CD0013B88221202003253430A68C9
:103CC000D80AD20A5043800901D00138FDD8704784
:103CD00054000020064880470649074A074B9B1AB4
:103CE00003DD043BC858D050FBDC0548004700000A
:103CF000ED3D00002C65000000000020C800002001
:103D000061010000FEE7FEE7FEE7FEE7FEE7FEE7F3
:103D1000FEE7FEE7FEE7FEE7FEE7FEE7FEE7FEE77B
:103D2000FEE7FEE7FEE7FEE7FEE7FEE7FEE7FEE76B
:103D3000FEE7C0461D4AF023D16A9B010B4080215B
:103D400049018B422DD0802189018B4205D08021F1
:103D500009018B4204D1164B00E0164B186824E091
:103D6000D268E023DB00134080229200934212D0FD
:103D700007D8002B11D08022520093420FD10E4859
:103D800013E0C022920093420ED08022D2009342D0
:103D900005D10A4809E00A4807E00A4805E0002082
:103DA00003E08020000200E00748704700800C40DC
:103DB0005C0000205800002040B56400406F4001C6
:103DC000C0D8A700804F1200809FD50008B5FFF72C
:103DD000B1FF044B5A680F231340D840024B1860C0
:103DE00008BDC04600800C40B00A0020704780200B
:103DF00000027047FA20800070470000014B1868ED
:103E00007047C0465800002002B471464908490076
:103E1000095C49008E4402BC7047C046002934D07A
:103E20000123002210B488422CD301242407A1428C
:103E300004D2814202D209011B01F8E7E400A14249
:103E400004D2814202D249005B00F8E7884201D3E4
:103E5000401A1A434C08A04202D3001B5C082243BC
:103E60008C08A04202D3001B9C082243CC08A0422D
:103E700002D3001BDC082243002803D01B0901D019
:103E80000909E3E7101C10BC7047002801D000208E
:103E9000C04307B4024802A14018029003BDC046C7
:103EA000D90000000029F0D003B5FFF7B9FF0EBC20
:103EB0004243891A1847C046002941D010B4041C57
:103EC0004C40A44601230022002900D54942002885
:103ED00000D5404288422CD301242407A14204D2B9
:103EE000814202D209011B01F8E7E400A14204D299
:103EF000814202D249005B00F8E7884201D3401AB0
:103F00001A434C08A04202D3001B5C0822438C08D1
:103F1000A04202D3001B9C082243CC08A04202D33B
:103F2000001BDC082243002803D01B0901D009092B
:103F3000E3E7101C6446002C00D5404210BC7047DB
:103F4000002806D003DB0020C043400801E08020A9
:103F5000000607B4024802A14018029003BDC04603
:103F6000190000000029EBD003B5FFF7A7FF0EBC36
:103F70004243891A1847C0467047C046002B11D1EA
:103F8000002A0FD1002900D1002802D00021C94306
:103F9000081C07B4024802A14018029003BDC046A5
:103FA000D9FFFFFF03B4684601B5029800F044F85A
:103FB000019B9E4602B00CBC7047C0469C46030461
:103FC000F0B51B0C17043F0C150C1E1C041C000C38
:103FD0007E436B4347434543FB18300C1818874218
:103FE00002D980235B02ED18030CED1863465C4395
:103FF0004A433604360CA118000480194919F0BD53
:10400000F0B583B0161C1F1C0090019100F02EF833
:10401000041C0D1C221C2B1C301C391CFFF7CEFF6E
:10402000009A019B121A8B410899201C0A604B6070
:10403000291C03B0F0BDC046F0B583B0141C1D1C94
:104040000090019100F0EAF9221C2B1C061C0F1CA9
:10405000FFF7B4FF009A019B121A8B410899301C9C
:104060000A604B60391C03B0F0BDC046F0B5444651
:104070005F4656464D46F0B41C1C85B0002900DA58
:10408000D9E00F1C0021061C8A46101C191C002CAC
:1040900000DAC7E00196009089468046002950D199
:1040A000B84262D900F07AFB002809D020234546A7
:1040B000311C1B1A85408740D940A8460F438640D3
:1040C0004246140C13041B0C211C381C9B46FFF7A2
:1040D000A5FE5B464343051C211C381C9946FFF78F
:1040E000E1FE330C08041843814509D940446B1E96
:1040F000804500D977E1814500D874E1023D404414
:104100004946411A8946081C211CFFF787FE5A467A
:104110004243071C211C48469346FFF7C3FE360462
:104120000904360C0E43B34507D946447B1EB045FF
:1041300002D8023FB34500D81F1C2D042F43002492
:1041400003E0B94260D9002400275246381C211CE4
:10415000002A03D03B1C00215842A14105B03CBCC1
:1041600090469946A246AB46F0BD002804D10120F6
:104170000021FFF753FE8046404600F00FFB002869
:1041800060D1414644460B043C1B1B0CA3460D0C5E
:1041900000930124291C5846FFF740FE009F8146EA
:1041A0004743291C5846FFF77DFE330C0904194389
:1041B0008F4208D94B464144013B884502D88F4283
:1041C00000D925E19946C91B8B46081C291CFFF71D
:1041D00025FE009B291C4343071C58460093FFF70C
:1041E00061FE3604009D0904360C0E43B54207D922
:1041F00046447B1EB04502D8023FB54200D81F1C82
:1042000049460B041F43A0E7081C00F0C7FA041E30
:1042100070D1B94503D3009C019DAC4293D80024D2
:10422000012792E75246D243031C0C1C9246002100
:104230005842A1412EE7002746428F4101214942C1
:104240008A4622E720231B1A4246351C82403C1C2A
:10425000DD40DC4087402B1C150C3B43291C86406D
:10426000201C009317049046FFF7D8FD3F0C011C5B
:10427000794381468B46201C291CFFF713FE009CC6
:104280000904230C19438B450CD94B464144013B8F
:10429000884500D9BAE08B4500D8B7E002225242E7
:1042A000914441445C460C1B201C291C0194FFF7DF
:1042B000B5FD391C4143041C8B460198291CFFF7AE
:1042C000F1FD009A090413041B0C19438B4509D90D
:1042D0004144631E884500D994E08B4500D891E0A5
:1042E000023C41445B46CB1A49469B460B041C43A7
:1042F00000974FE7009D20231B1A4A4600998240F1
:10430000DD40154381403A1CDA400091311C904653
:10431000D9403A1C82400B1C134301932F0C2B04F1
:104320001B0C391C40460293FFF778FD029A814628
:104330004243391C40469346FFF7B4FD019A0904F5
:10434000130C19438B450AD94B464919013B8D4241
:104350005AD88B4558D902235B42994449195A4689
:104360008A1A101C391C0392FFF758FD029B8046E5
:104370004343391C03989B46FFF794FD019A0904B7
:1043800013041B0C19438B450AD943464919013BB9
:104390008D4235D88B4533D902235B429844491965
:1043A0005D464D1BAB464946009D0F0442461743F0
:1043B0002A04120C3B042D0C1B0C380C111C594305
:1043C00042436B436843D3180D0C5B198C469A42E9
:1043D00002D98022520280181D0C401983450CD34B
:1043E00003D00024B1E61D1C8AE665462A041B049E
:1043F000120C9B18A6409E42F3D2013F0024A4E673
:104400009846CDE71C1C6DE79946A8E7994649E711
:104410000222524291444144D5E6C046F0B55F467F
:1044200056464D464446F0B40D1C85B0061C9246D7
:1044300098460290019103921F1C141C8346A946C2
:10444000002B52D1AA426BD9101C00F0A7F900280A
:104450000AD020231B1A311CD94085400B1C2B434A
:10446000864084409946B346250C23041B0C291C26
:1044700048469846FFF7D2FC4646071C4643291C8F
:104480004846FFF70FFD5A460904130C19438E42A4
:1044900009D909197B1E8C4200D959E18E4200D8F6
:1044A00056E1023F0919891B8946081C291CFFF7A0
:1044B000B5FC43464343061C291C48469846FFF773
:1044C000F1FC5A46130409041B0C1943884508D90A
:1044D0000919731E8C4200D938E1023E884500D884
:1044E00034E138043043002712E0019A93420DD89A
:1044F000181C00F053F9041E66D1019B9F4200D2A4
:1045000021E1039F02998F4200D81CE1002700207F
:10451000391C05B03CBC90469946A246AB46F0BD5E
:10452000002A04D101200021FFF778FC041C201C84
:1045300000F034F9002800D0B6E023042D1B1B0C3A
:10454000A946260C98460127311C4846FFF766FC11
:1045500041464143051C8A464846311CFFF7A2FCF0
:104560005A460804130C1843824507D900196B1EDC
:10457000844202D8824500D90DE11D1C5346C31A5E
:10458000181C311C9A46FFF749FC414641438146BD
:1045900088465046311CFFF785FC5A46130409042F
:1045A0001B0C194388450BD94B460919013B8C421A
:1045B00000D9CFE0884500D8CCE002235B42994483
:1045C000280449460843A3E720231B1A42465746BE
:1045D0008240DF401743524682400192321CDA404B
:1045E000291CD9408540131C2B4302933D0C3B04EE
:1045F0001B0C8846081C291C9A46FFF70FFC5346E3
:1046000043438146291C40469B46FFF74BFC029AD8
:104610000904130C19438B4506D94B46C919013BB4
:104620008F4200D8ABE099465A468A1A101C291CC2
:104630009346FFF7F3FB53464343291C80465846F5
:104640009A46FFF72FFC029A090415042D0C294302
:104650008A4506D94346C919013B8F4200D886E0F6
:1046600098465746CF1BBA464946019F0804424622
:1046700010433D042D0C03043F0C1B0C020C291CA1
:10468000594355437B437A43EB180F0CDB198C4697
:104690009D4202D980277F02D2191D0C52199245E2
:1046A00062D359D0002733E720231B1A311C2F1C5B
:1046B000D940DF4085400B1C84402B43864001934A
:1046C000B3462304260C1B0C381C311C9846FFF7FC
:1046D000A5FB42464243051C311C381C9146FFF79E
:1046E000E1FB019F09043B0C1943894507D90919CE
:1046F0006B1E8C424DD889454BD9023D09194A465B
:104700008A1A101C311C9246FFF788FB434643432C
:10471000071C311C50469946FFF7C4FB019A090457
:1047200013041B0C1943894507D909197B1E8C42B8
:104730002DD889452BD9023F09194B46CB1A2D0498
:1047400099462F4300E700270120E1E61E1CC8E63A
:104750001F1CA8E6994633E761460A041B04120CA5
:104760009B18A6409E429DD201380027D0E68A457C
:1047700000D875E702235B429844C91971E78B455D
:1047800000D850E702235B429944C9194CE71F1C2B
:10479000D3E71D1CB3E7023D0019EFE61C210123FE
:1047A0001B04984201D3000C10391B0A984201D314
:1047B000000A08391B09984201D30009043902A2F2
:1047C000105C40187047C046040302020101010159
:1047D0000000000000000000084B10B5041C002B76
:1047E00002D0002100E000BF054B1868836A002B4F
:1047F00000D09847201C00F043F8C046000000009D
:104800001C65000070B50E4B0E4D0024ED1AAD1066
:104810001E1CAC4204D0A300F35898470134F8E7BB
:1048200000F030F8084B094D0024ED1AAD101E1CA5
:10483000AC4204D0A300F35898470134F8E770BDA8
:10484000C0000020C0000020C0000020C4000020E4
:1048500010B50023934203D0CC5CC4540133F9E774
:1048600010BD031C8218934202D019700133FAE77D
:1048700070470023C25C0133002AFBD1581E7047E9
:10488000FEE7C046F8B5C046F8BC08BC9E46704777
:10489000F8B5C046F8BC08BC9E467047FFFFFFFF56
:1048A000FFFFFFFFFFFFFFFFFFFFFFFFFFFFFFFF18
:1048B000FFFFFFFFFFFFFFFFFFFFFFFFFFFFFFFF08
:1048C000FFFFFFFFFFFFFFFFFFFFFFFF01000000F3
:1048D0000000000000000000000000800100000057
:1048E0000000000000000000000000800100000047
:1048F0000000000000000000000000800100000037
:104900000000000000000000000000800100000026
:104910000000000000000000000000800100000016
:104920000000000000000000000000800100000006
:1049300000000000000000000000008001000000F6
:1049400000000000000000000000008001000000E6
:1049500000000000000000000000008001000000D6
:1049600000000000000000000000008001000000C6
:1049700000000000000000000000008001000000B6
:1049800000000000000000000000008001000000A6
:104990000000000000000000000000800100000096
:1049A0000000000000000000000000800100000086
:1049B0000000000000000000000000800100000076
:1049C0000000000000000000000000800100000066
:1049D0000000000000000000000000800100000056
:1049E00000000000000000000000008001800700BF
:1049F0000000000000000000000000800100000036
:104A00000000000000000000000000800100000025
:104A100000000000000000000000008001C0440011
:104A20000000000000000000000000800100000005
:104A300000000000000000000000008001000000F5
:104A40000000000000000000000000800120840041
:104A500000000000000000000000008001000000D5
:104A600000000000000000000000008001000000C5
:104A70000000000000000000000000800120840011
:104A800000000000000000000000008001000000A5
:104A90000000000000000000000000800100000095
:104AA00000000000000000000000008001208400E1
:104AB000000000000000000007000080010000006E
:104AC0000000000000000000000000800100000065
:104AD00000000000000000000000008001208400B1
:104AE00000000000000000800D00008001000000B8
:104AF0000000000000000000000000800100000035
:104B00000000000000000000000000800140C40020
:104B100000000000000000C018000080010000003C
:104B20000000000000000000000000800100000004
:104B300000000000000000000000008001C06400D0
:104B40000000000000000040100000800100000094
:104B500000000000000000000000008001000000D4
:104B600000000000000000000000008001001F00A5
:104B70000000000000000040100000800100000064
:104B800000000000000000000000008001000000A4
:104B90000000000000000000000000800100000094
:104BA0000000000000000040100000800100000034
:104BB0000000000000000000000000800100000074
:104BC0000000000000000000000000800120000044
:104BD0000000000000000040100000800100000004
:104BE0000000000000000000000000800100000044
:104BF0000000000000000000000000800120000014
:104C000000000000000000FE100000800100000015
:104C10000000000000000000000000800100000013
:104C20000000E0FFFFFF7F00000000800120000087
:104C300000000000000000401000008001000000A3
:104C400000000000000000000000008001000000E3
:104C5000000030000000C0000000008001C0000023
:104C60000000000000000040100000800100000073
:104C700000000000000000000000008001000000B3
:104C800000001800000080010000008001E0FF002B
:104C90000000000000000040100000800100000043
:104CA0000000000000000000000000800100000083
:104CB00000000807CE011C01000000800100000078
:104CC000000000000000004010000080010800000B
:104CD0000000000000000000000000800100000053
:104CE00000000807CE011C01000000800100000048
:104CF000000000000000004010000080017800006B
:104D00000000000000000000000000800120800082
:104D1000000008078E030E01000000800100000063
:104D200000000000000000401000008001C00100F1
:104D30000000000000000000000000800160C000D2
:104D4000000008078E030E01000000800100000033
:104D500000000000000000401000008001000F0073
:104D600000000000000000000000008001806000E2
:104D7000000008078E070F010000008001E0FF001F
:104D8000000000000000004010000080010038001A
:104D900000000000000000000000008001001B0077
:104DA000000008070E0707010000008001006000F6
:104DB0000000000000000040100000800100F8002A
:104DC00000000000000000000000008001000C0056
:104DD000000008070E0707010000008001008000A6
:104DE00000000000000000401000008001008F0360
:104DF00000000000000000000000008001001B0017
:104E0000000008070E8E03010000008001008000F2
:104E100000000000000000401000008001C00306F8
:104E200000000000000000000000008001C06000E1
:104E3000000008070E8E03010000008001008000C2
:104E40000000000000000040100000800178000415
:104E50000000000000000000000000800160C000B1
:104E6000000008070EDE0301000000800100800042
:104E70000000000000000040100000800108000455
:104E80000000000000000000000000800120800001
:104E9000000008070EDC0101000000800100400056
:104EA0000000000000000040100000800108200009
:104EB0000000000000000000000000800100000071
:104EC000000008070EDC01010000008001E03F0047
:104ED00000000000000000FE10000080010820001B
:104EE00000000000000000000000008001800700BA
:104EF0000000080F0FFC010100000080010000000D
:104F000000000000000000401000008001082000A8
:104F100000000000000000000F06008001C04400F7
:104F2000000008FE07F800010000008001000000FA
:104F30000000000000000040100000800108300068
:104F400000000000000000801902008001208400A1
:104F5000000008FE07F8000100000080012080002A
:104F600000000000000000401000008001FF1F0052
:104F7000000000000000008010010080012084007B
:104F8000000008F80170000100000080012080008E
:104F90000000000000000040100000800108000038
:104FA000000000000000008010010080012084004B
:104FB00000000800000000010000008001208000C7
:104FC0000000000000000040100000800108000008
:104FD000000000000000008090000080012084009C
:104FE0000000080000000001000000800120C00057
:104FF00000000000000000401000008001000000E0
:105000000000000000000080D90000800140C400C2
:1050100000008813797822010000008001FC7F00E5
:1050200000000000000000401000008001000000AF
:1050300000000000000000004F00008001C064007C
:1050400000000831890822010000008001200000D2
:105050000000000000000040101C0080C1F83F006C
:105060000000000000000000200F008001001F0071
:10507000000008510909140100000080012000000F
:10508000000000000000004010220080010000002D
:105090000000000000000000B019008001000000C6
:1050A000000008510979080100000080010000009B
:1050B00000000000000000401022008001000000FD
:1050C00000000000000000009010008001000000BF
:1050D000000008910909140100000080010000008F
:1050E0000000000000000040101C008001000000D3
:1050F0000000000000000000881000800100000097
:105100000000081189082201000000800180FF00D2
:1051100000000000000000401000008001000000BE
:105120000000000000000000881000800100000066
:10513000000088137978220100000080016062007D
:10514000000000000000004010000080010000008E
:1051500000000000000000008419008081FFFF00B3
:105160000000080000000001000000800120420053
:10517000000000000000004010000080E1FF3F0040
:105180000000000000000000060F008001C0600069
:1051900000000800000000010000008001208200E3
:1051A00000000000000000401000008001301800E6
:1051B00000000000000000000000008001604000CE
:1051C00000000800000000010000008001208200B3
:1051D00000000000000000401000008001181000D6
:1051E000000000000000000000000080012080009E
:1051F0000000080000000001000000800120840081
:1052000000000000000000401000008001082000A5
:10521000000000000000000000000080012080006D
:105220000000080000000001000000800140C400F0
:1052300000000000000000FE1000008001082000B7
:10524000000000000000000000000080012080003D
:10525000000008000000000100000080010078004C
:105260000000000000000040100000800108200045
:105270000000000000000000000000800140C000AD
:105280000000080000000001000000800100000094
:1052900000000000000000401000008001103000FD
:1052A00000000000000000000000008001C060005D
:1052B0000000080000000001000000800120000044
:1052C00000000000000000401000008001301800C5
:1052D00000000000000000000000008001001F002E
:1052E0000000080000000001000000800120000014
:1052F00000000000000000401000008001C0070016
:10530000000000000000000000000080010000001C
:1053100000000800000000010000008001200000E3
:1053200000000000000000401000008001000000AC
:1053300000000000000000000000008001000000EC
:1053400000000800000000010000008001C0000013
:10535000000000000000004010000080010000007C
:1053600000000000000000000000008001000000BC
:1053700000000800000000010000008001E0FF00C4
:10538000000000000000004010000080010000004C
:105390000000000000000000000000800180FF000D
:1053A0000000080000000001000000800100000073
:1053B000000000000000004010000080C1F83F0025
:1053C000000000000000000000000080014000001C
:1053D0000000080000000001000000800100000043
:1053E00000000000000000401000008001000000EC
:1053F000000000000000000000000080012000000C
:105400000000080000000001000000800100000012
:1054100000000000000000401000008001000000BB
:1054200000000000000000000000008001200000DB
:10543000000008000000000100000080018007005B
:10544000000000000000004010000080010000008B
:1054500000000000000000000000008001200000AB
:1054600000000800000000010000008001C04400AE
:10547000000000000000004010000080010000005B
:10548000000000000000000000000080014000005B
:1054900000000800000000010000008001208400DE
:1054A00000000000000000401000008001E03F000C
:1054B00000000000000000000000008001C00000AB
:1054C00000000800000000010000008001208400AE
:1054D00000000000000000401000008001100000EB
:1054E00000000000000000000000008001E0FF005C
:1054F000000008000000000100000080012084007E
:1055000000000000000000401000008001080000C2
:10551000000000000000000000000080010000000A
:10552000000008000000000100000080012084004D
:105530000000000000000040100000800108000092
:1055400000000000000000000000008001000000DA
:105550000000080000000001000000800140C400BD
:105560000000000000000040100000800108000062
:1055700000000000000000000000008001000000AA
:1055800000000800000000010000008001C064006D
:1055900000000000000000FE100000800118000064
:1055A000000000000000000000000080010000007A
:1055B00000000800000000010000008001001F0042
:1055C00000000000000000401000008001300000DA
:1055D00000000000000000000000008001FFFF004C
:1055E0000000080000000001000000800100000031
:1055F00000000000000000401000008001E03F00BB
:105600000000000000000000000000800100000019
:105610000000080000000001000000800100000000
:105620000000000000000040100000800110000099
:1056300000000000000000000000008001000000E9
:1056400000000800000000010000008001000000D0
:105650000000000000000040100000800108000071
:1056600000000000FC3F000000000080010000007E
:1056700000000800000000010000008001801F0001
:105680000000000000000040100000800108000041
:10569000000000C007E003000000008001000000DF
:1056A00000000800000000010000008001C0600050
:1056B0000000000000000040100000800108000011
:1056C0000000007800001E000000008001000000C3
:1056D00000000800000000010000008001604000A0
:1056E00000000000000000401000008001180000D1
:1056F0000000000E000070000000008001000000AB
:10570000000008000000000100000080012080006F
:105710000000000000000040100000800130000088
:10572000000080030000C0010000008001000000B4
:10573000000008000000000100000080012080003F
:1057400000000000000000401000008001F83F0051
:105750000000E000000000070000008001000000E1
:10576000000008000000000100000080012080000F
:105770000000000000000040100000800100000058
:10578000000030000000000C00000080010100005B
:105790000000080000000001000000800140C0007F
:1057A0000000000000000040100000800100000028
:1057B00000001C000000003800000080010F000005
:1057C000000008000000000100000080018060006F
:1057D00000000000000000401000008001000000F8
:1057E000000006000000006000000080017800005A
:1057F00000000800000000010000008001E0FF0F31
:1058000000000000000000401000008001000000C7
:1058100000000300000000C00000008001E0010063
:1058200000000800000000010000008001000000EE
:1058300000000000000000401000008001F83F0060
:1058400000800100000000800100008001000F00C6
:1058500000000800000000010000008001000000BE
:10586000000000000000004010000080010018004F
:1058700000C000000000000003000080010078006C
:10588000000008000000000100000080010000008E
:105890000000000000000040100000800100200017
:1058A0000060000000000000060000800100C00051
:1058B000000008000000000100000080010000005E
:1058C00000000000000000401000008001002000E7
:1058D0000020000000000000040000800100F8002B
:1058E0000000180000008001000000800180FF001F
:1058F00000000000000000FE1000008001002000F9
:1059000000300000000000000C00008001001F00BB
:10591000000030000000C0000000008001400000D6
:105920000000000000000040100000800100200086
:1059300000180000000000001800008001E00300D3
:105940000000E0FFFFFF7F0000000080012000005A
:105950000000000000000040100000800100100066
:105960000008000000000000100000800178000026
:105970000000000000000000000000800120000086
:1059800000000000000000401000008001F80F003F
:10599000000C00000000000030000080010F00003B
:1059A0000000000000000000000000800120000056
:1059B0000000000000000070700000800100000086
:1059C00000060000000000006000008001010000EF
:1059D00000000000000000000000008001600000E6
:1059E000000000000000000C8701008001000000A2
:1059F00000020000000000004000008001000000E4
:105A000000000000000000000000008001C0000055
:105A100000000000000000030706008001000000F5
:105A200000020000000000004000008001000000B3
:105A30000000000000000000000000800180FF0066
:105A400000000000000080F17F0C008001000000D9
:105A50000003000000000000C00000800100000002
:105A60000000000000000000000000800140000075
:105A7000000000000000C0F8FF180080C1FF3F00D8
:105A800000010000000000008000008001FF1F00F6
:105A90000000000000000000000000800120000065
:105AA00000000000000060FEFF33008001200000C5
:105AB0008001000000000000800100800100600003
:105AC0000000000000000000000000800120000035
:105AD00000000000000020FFFF27008001200000E0
